:020000040000FA
:1000000002018002200353D77F222202200602121F
:08001000CF80FE022009000070
:03001B0002200CB4
:0300230002200FA9
:03002B000220129E
:0300330002201593
:03003B0002201888
:0300430002201B7D
:03004B0002201E72
:0300530002202167
:03005B000220245C
:0300630002202751
:03006B0002202A46
:0300730002202D3B
:03007B0002203030
:0300830002203325
:03008B000220361A
:030093000220390F
:03009B0002203C04
:1000A30002203F7FFF90008EE07002A3E070479034
:1000B300008CE07002A3E0703D900090E07004A318
:1000C300E06401703190008AE0FE30E729541F702C
:1000D30025900088E0B404087BFF7A007916800D30
:1000E300900088E0B4060F7B017A0079867D017C5D
:0700F300001217DCE4FF22FC
:1000FB000220602001020F25E493A3F8E493A340B0
:10010B0003F68001F208DFF48029E493A3F8540787
:10011B00240CC8C333C4540F4420C8834004F45682
:10012B00800146F6DFE4800B0102040810204080BA
:10013B00901991E47E019360BCA3FF543F30E50915
:10014B00541FFEE493A360010ECF54C025E060A8BA
:10015B0040B8E493A3FAE493A3F8E493A3C8C5824D
:10016B00C8CAC583CAF0A3C8C582C8CAC583CADFBB
:10017B00E9DEE780BEE4786079109007F0E0F608DE
:10018B00A3D9FA78607910901C10E49386F0B5F03F
:10019B0064A308D9F5E490200093B40258E4907D51
:1001AB00FE93B45550E4907DFF93B4AA480220000F
:1001BB0090008EE0FEA3E0FF7DFFC3EE9400503174
:1001CB00A3E07004A3E06401702790008CE0700240
:1001DB00A3E0701D90008AE0B48116900088E0B413
:1001EB00060F7BFF7A0079167D017C001217DCE489
:0401FB00FDAF05222D
:1002000075A800787FE4F6D8FD75812012013B5374
:10021000EFEF0220009000A9EEF0A3EFF09000B104
:10022000741EF0A3E4F0A374FDF09000A9E0FEA317
:10023000E02406F582E43EF583E0FEA3E0FFD394DC
:1002400040EE9400400A7C007D407E007F408000AC
:100250009000AFEEF0A3EFF09000A9E0FEA3E0F570
:10026000828E83E0FFC4135403705BEFC413131337
:10027000540130E0519000A9E0FEA3E0F5828E83A6
:10028000E0541F7041A3E0640660030208CF9000B1
:10029000A9A3E0F5828E83A3A3E0FEA3E07003EEA2
:1002A000640F60030208CF7BFF7A1979BE9000AF1C
:1002B000E0FFA3E09000B8CFF0A3EFF0C200E4FFAE
:1002C000120E6B0208CA9000A9E0FEA3E0F5828E30
:1002D00083E0FFC4135403640260030208CFEFC439
:1002E000131313540130E0030205679000AFE07070
:1002F00002A3E0602612194E50FB9000AFA3E0FD70
:100300007B017A007906E4FF1213CAE4FF12195A3E
:10031000759611759740E59620E7FB9000A9E0FEE1
:10032000A3E0F5828E83A3E01460701470030203CF
:10033000B414700302040124F8700302045C147006
:100340000302049524FE70030204E81470030205FE
:1003500042240F60030208CAE49000ABF0A3F090BF
:1003600000ABE0FEA3E0FF2406F58274003EF583B7
:10037000E0FD74462FF58274003EF583EDF09000A9
:10038000ACE004F070069000ABE004F09000ABE04D
:100390007004A3E0644070C70208CA900007E0FF41
:1003A000EFFE900006E0FDEDFF900000EEF0A3EF01
:1003B000F00208CA900000E0FEA3E0FFC3EE941C28
:1003C00050030208CA9000AFE0FCA3E0FDEF2DFF50
:1003D000EE3CCF24FFCF34FFFED3EF94FFEE947DAD
:1003E00040030208CA900000E0FEA3E0FF7B017A10
:1003F0000079069000B9ECF0A3EDF01215D60208D2
:10040000CA900000E0FEA3E0FFC3EE941C403690CB
:1004100000AFE0FCA3E0FDEF2DFFEE3CCF24FFCFCB
:1004200034FFFED3EF94FFEE947D5019900000E06E
:10043000FEA3E0FF7B017A0079069000B9ECF0A3FF
:10044000EDF01215D69000AFE0FEA3E0FF900001A2
:10045000E02FF0900000E03EF00208CA900007E0B4
:10046000FFC36480949C50030208CAD3EF64809455
:10047000FD40030208CAEF3395E0EFFE900006E06E
:10048000FD3395E0FCEE4CFEEDFF900009E0FD121F
:1004900017540208CA900007E0FF3395E0EFFE9082
:1004A0000006E0FD3395E0FCEE4CFEEDFFC006C01B
:1004B00007900009E0FF3395E0EFFE900008E0FDB3
:1004C0003395E0FCEE4CFC90000BE0FF3395E0EF41
:1004D000FE90000AE0FB3395E0FAEE4AFAEBD00713
:1004E000D0061215700208CA900007E0FFC36480AE
:1004F000949C50030208CAD3EF648094FD40030229
:1005000008CAEF3395E0EFFE900006E0FD3395E07A
:10051000FCEE4CFEEDFF121783900007E0642060B4
:10052000030208CA747CF0E0FF3395E0EFFE900010
:1005300006E0FD3395E0FCEE4CFEEDFF1217830262
:1005400008CA9000A9E0FEA3E02404F582E43EF589
:1005500083E0FEA3E0F47003EE640F60030208CAB8
:100560009000BFF00208CA9000A9E0FEA3E0FFF5EA
:10057000828E83E0FDC4131313540120E0030208AC
:10058000CAA3E014605C1470030207D6147003025F
:1005900007F914700302087A240460030208CFE408
:1005A0009000ABF0A3F09000ABE0FEA3E0FF2406C8
:1005B000F58274003EF583E0FD74462FF5827400E9
:1005C0003EF583EDF09000ACE004F070069000ABD7
:1005D000E004F09000ABE07004A3E0644070C70258
:1005E00008AE9000ABE4F0A37440F07B017A007990
:1005F000469000B1E0FCA3E0FD9000B9E4F0A374E4
:1006000040F012163BE49000ABF0A3F09000ABE09A
:10061000FEA3E0FFC3943CEE9400401D900082E0F6
:10062000900002F0900083E0900003F0900084E0DE
:10063000900004F09000858070744A2FF582740059
:100640003EF583E0F470769000ABE0FEA3E0244C2E
:10065000F58274003EF583E0F47062900046E0F4A9
:10066000604E900048E0F460479000ABA3E0FF24A8
:1006700046F58274003EF583E0900002F074472F47
:10068000F58274003EF583E0900003F09000ABA388
:10069000E02448F58274003EF583E0900004F07495
:1006A000492FF58274003EF583E0900005F0801E2E
:1006B000E4900002F0A3F0A3F0A3F080119000AC4E
:1006C000E02404F09000ABE03400F002060C90004F
:1006D00000E0FEA3E0900046F0EEA3F0E4A3F0A358
:1006E0007420F0A374FFF0A3747DF0E4A3F0A3746E
:1006F0001CF0E4A3F0A3F0900002E0900050F09012
:100700000003E0900051F0900004E0900052F0905F
:100710000005E0900053F0A37420F0A37401F09062
:100720000000E0641C7002A3E070759000ABF0A3C1
:10073000F09000ABE0FEA3E0FF24F0F58274073EEA
:10074000F583E0FD74562FF58274003EF583EDF0DD
:100750009000ACE004F070069000ABE004F0900074
:10076000ABE07004A3E0641070C7E49000ABF0A3AA
:10077000F09000ABE0FEA3E0FFC39420EE940040B5
:10078000030208AE74662FF58274003EF583E4F030
:100790009000ACE004F070D99000ABE004F080D1A0
:1007A000E49000ABF0A3F09000ABE0FEA3E0FFC349
:1007B0009430EE940040030208AE74562FF5827414
:1007C000003EF583E4F09000ACE004F070D99000B6
:1007D000ABE004F080D17B017A007946900000E024
:1007E000FCA3E0FD9000AFE0FFA3E09000B9CFF0E4
:1007F000A3EFF012163B0208AE900000E0FEA3E06B
:10080000FFC3EE941C403F9000AFE0FCA3E0FDEF7F
:100810002DFFEE3CCF24FFCF34FFFED3EF94FFEE4D
:10082000947D50227B017A007946900000E0FCA381
:10083000E0FD9000AFE0FFA3E09000B9CFF0A3EFA0
:10084000F012163B8054E49000ABF0A3F09000ABA4
:10085000E0FEA3E0FFC39440EE9400503D74462FA9
:10086000F58274003EF58374FFF09000ACE004F074
:1008700070DB9000ABE004F080D37B017A00794616
:10088000900000E0FCA3E0FD9000AFE0FFA3E0904B
:1008900000B9CFF0A3EFF012163B9000AFE0FEA33B
:1008A000E0FF900001E02FF0900000E03EF07B01BF
:1008B0007A0079469000AFE0FFA3E09000B8CFF057
:1008C000A3EFF0C200E4FF120E6BE49000B3F090CF
:1008D00000B3E0FF22E4FDFC9000AE74FFF0900056
:1008E0008AE064806003020A2690008CE0FAA3E0AC
:1008F0009000AAF0EAFFE460030209FDEF24FE6025
:100900003A14606F240260030209FD9000AAE060BF
:10091000030209FD90009AE0F9A3E0FAA3E0900039
:10092000ABC9F0A3EAF0A3E9F090009AE0FBA3A31F
:10093000E0F9120B827C00FD0209FD9000AAE06044
:10094000030209FD90009DE0F9A3E0FAA3E0900006
:10095000ABC9F0A3EAF0A3E9F090009DE0FBA3A3EC
:10096000E0F9900002120C06FAE5F0FFEAFCEFFD58
:100970000209FD9000A0E0FBA3E0FAA3E0F99000DB
:10098000AAE0FF75F003A4F58285F083120C5E9057
:1009900000ABEBF0A3EAF0A3E9F0EF700CFC7D04F0
:1009A000900092E05480F0805490008EE0FEA3E02E
:1009B000FF4E600AEF64097003EE6404703F90001C
:1009C00087E0FF9000AAE0C39F5032A3E0FBA3E0C2
:1009D000FAA3E0F9900001120B9B7C00FD120B8240
:1009E000547FFF900092E054804FFFF09000ACE401
:1009F00075F001120BDAEF4480900092F0ED4C603C
:100A000025900090E0FEA3E0FFC39DEE9C5004AC57
:100A100006AD079000ABE0FBA3E0FAA3E0F91217E4
:100A2000DCE49000AEF09000AEE0FF22900099E090
:100A3000139200900096E0FEA3E0FFC39440EE9472
:100A40000040047F4080009000A9EFF0900096E005
:100A5000FEA3E0FFD39440EE940050047F4080005A
:100A60009000ACEFF09000A9E0A3F0900092E0FFBE
:100A7000547F64017077EF30E72AA3E0FBA3E0FA2C
:100A8000A3E0F9C2017D02E4FF1211B7900094E4E3
:100A900075F002120BDA9000A9E024FEF0900092AB
:100AA000E0547FF0E49000ABF09000A9E0C313FFA6
:100AB0009000ABE0C39F505A900093E0FBA3E0FA94
:100AC000A3E0F9C2017D01E4FF1211B7900094E4A4
:100AD00075F001120BDA7BFF7A007916C2017D01F5
:100AE000E4FF1211B79000ABE004F080BC9000A9C5
:100AF000E0FD900093E0FBA3E0FAA3E0F9C201E47B
:100B0000FF1211B79000A9E0FF900094E48FF0125B
:100B10000BDA900099E054FBF09000AAE0FFC3903C
:100B20000097E09FFF900096E09400FEF0A3EFF0A6
:100B30004E70249000ACE06440601C75961175976F
:100B40000AE59620E7FB9000987401F0E49000928B
:100B5000F0900099F0800B759611759702E596203C
:100B6000E7FB30001C9000AAE0FB7A00900096E0C2
:100B7000FFA3E09000B1CFF0A3EFF0E4FDFF121867
:100B8000F922BB010689828A83E0225002E722BB58
:100B9000FE02E32289828A83E49322BB010CE58270
:100BA00029F582E5833AF583E0225006E92582F8AB
:100BB000E622BBFE06E92582F8E222E58229F582DB
:100BC000E5833AF583E49322BB010689828A83F0A8
:100BD000225002F722BBFE01F322C5F0F8A3E02861
:100BE000F0C5F0F8E582158270021583E038F02236
:100BF000A3F8E0C5F025F0F0E582158270021583B8
:100C0000E0C838F0E822BB0110E58229F582E583CF
:100C10003AF583E0F5F0A3E0225009E92582F88651
:100C2000F008E622BBFE0AE92582F8E2F5F008E2C8
:100C300022E5832AF583E993F5F0A3E99322BB012A
:100C40000789828A83020C975005E9F8020C8EBB53
:100C5000FE05E9F8020CA089828A83020CA9BB0177
:100C60000DE58229F582E5833AF583020C9750075A
:100C7000E92582F8020C8EBBFE07E92582F8020CFA
:100C8000A0E58229F582E5833AF583020CA9E6FB0B
:100C900008E6FA08E6F922E0FBA3E0FAA3E0F9226D
:100CA000E2FB08E2FA08E2F922E493FB740193FA0A
:100CB000740293F9229000AA74FFF090008CE0FC7B
:100CC000A3E0FDEC6003020DA390008AE0541F60D6
:100CD00003020DA3900090E07002A3E06003020DF8
:100CE000A390008EE07002A3E06003020DA39000C9
:100CF00088E064047057ED4C602090009DE0FBA3F9
:100D0000E0FAA3E0F9900005120B9BFF90008CE045
:100D10007003A3E06F6003020DA390008CA3E0902A
:100D20000086F090009DE0FBA3E0FAA3E0F99000BC
:100D300005120B9BFF90008CE0B4000FA3E0B507F9
:100D40000AD20012000A7F061217238051900088F1
:100D5000E06406704E90008CE0FEA3E0FF4E601C45
:100D600090009DE0FBA3E0FAA3E0F9900005120BD0
:100D70009BFD7C00EFB5052BECB5062790008CA3FE
:100D8000E0900086F090008CE07002A3E0700A7F93
:100D90000412172312185B8005C20012000AE490A7
:100DA00000AAF09000AAE0FF229000A6EBF0A3EAD0
:100DB000F0A3E9F053E6FDE4FF74862FF582E434F6
:100DC00000F583E4F00FEFB41DEF9000A6E0FBA365
:100DD000E0FAA3E0F9120C3E90009AEBF0A3EAF0DF
:100DE000A3E9F09000A6E0FBA3E0FAA3E0F99000ED
:100DF00003120C5E90009DEBF0A3EAF0A3E9F090E3
:100E000000A6E0FBA3E0FAA3E0F9900006120C5E56
:100E10009000A0EBF0A3EAF0A3E9F09000A6E0FBBD
:100E2000A3E0FAA3E0F9900009120B9B900087F071
:100E300053A98F43D720759601759708E59620E74B
:100E4000FB75960B75970FE59620E7FBE5C9A2E6C3
:100E500090008850057403F080037401F0759601CA
:100E6000759701E59620E7FB7F00229000B5EBF037
:100E7000A3EAF0A3E9F09000B4EFF0601280007BE9
:100E8000FF7A16799B7D7E7C021200117FFC2290F6
:100E900000B4E0FE600B900088E0640660037FF71A
:100EA00022EE75F007A42493F9740035F0FEAF012B
:100EB000F583EF2405F582E43583F583E0FD6401D5
:100EC0006009ED7FFEB405027FFB229000B5E0F9DA
:100ED000A3E0FAA3E08F828E83C9F0A3EAF0A3E92E
:100EE000F09000B8E0FDA3E08F828E83A3A3A3CD92
:100EF000F0A3EDF0EF2405F582E43EF5837402F0F3
:100F0000A200E4335401FDEF2406F582E43EF583AC
:100F1000E054FE4DF09000B4E07007900099E0447A
:100F200004F07F0022E4F5BFF5A8F5E6F5E753B23B
:100F3000FC75A902F5D9F5D8F5DAF5E175E240F5C9
:100F4000E312000675F1FF75F2FF75F3FF75F4FF0C
:100F5000E4F5A4F5A5F5A6F5A77580FF7590FF75D6
:100F6000A0FF75B0FF75D4FF75D5FF75D6FF75DF8F
:100F7000FF9000A4F0A3F09000A5E004F0700690AC
:100F800000A4E004F09000A4E0B4FFEBA3E0B4FE02
:100F9000E67BFF7A1A7957120DA91219419000BF0A
:100FA0007401F09000BFE0600512000E80F5E4903F
:100FB00000A4F0A3F012000E9000A5E004F070066B
:100FC0009000A4E004F0C39000A4E0940140E61275
:100FD000000675EF107F0022E4FF12195A1219273C
:100FE000400512191A501F759611E4F597E59620E1
:100FF000E7FB759611759780E59620E7FB900098C2
:101000007401F0E4A3F012194E5061900099E0FFD2
:1010100030E3028054900098E064017048900092A0
:10102000F012111D7E007F8A120215BFFD1590007F
:101030008AE0FFC41354037005121249802E12185F
:101040008E802990008AE020E722900098E06403D7
:10105000601A900090E07002A3E06010900099E0A8
:101060004408F08007900099E04402F0900098E076
:10107000B402081219344003120A2C229000AA74F8
:10108000FFF0900090E07004A3E06402600302119E
:101090001790008CE07002A3E0707C90008AE0FF63
:1010A00030E774900088E0FEC39404406AE4900046
:1010B000BDF0A3F0EF541F14601D146025240270CE
:1010C0004490008EE07002A3E0703A9000BDE044CE
:1010D00001F0A3E0F0801CC390008EE09400502546
:1010E000801190008EE0FCA3E0FD547F4C700BEE6D
:1010F000B40407E49000AAF0800B900088E0B406E6
:10110000047E00AF059000AAE0700C7B017A0079A4
:10111000BD7D02FC1217DC9000AAE0FF227E007F5A
:101120008A9000A9EEF0A3EFF0AA06F97B017D08F2
:10113000E4FF1213CA759611759740E59620E7FBF8
:101140009000A9E0FEA3E0F5828E83A3A3E0FCA3B8
:10115000E0FAECFFEAFE9000A9E0FCA3E0FDF582D6
:101160008C83A3A3EEF0A3EFF0ED2404F582E43C1E
:10117000F583E0FCA3E0FAECFFEAFE9000A9E0FCB6
:10118000A3E0FD2404F582E43CF583EEF0A3EFF048
:10119000ED2406F582E43CF583E0FCA3E0FAECFFE5
:1011A000EAFE9000A9E0FCA3E02406F582E43CF509
:1011B00083EEF0A3EFF0229000ADEFF0A3EDF0A3EB
:1011C000EBF0A3EAF0A3E9F0E59620E7FB9000AD91
:1011D000E04420F5969000AFE014601924036028E5
:1011E0001460341470429000AEE0FFA3A3A3E0FDAE
:1011F0001218D180339000AEE0FFA3A3E0FAA3E081
:10120000AC02FD1218BB80209000AEE0FFA3A3A3A8
:10121000E0FD1218E580119000AEE0FFA3A3E0FA14
:10122000A3E0AC02FD12187730011D9000ADE0FF85
:10123000D39400401312195A759691E59620E7FB56
:10124000439701E59620E7FB22E49000A9F0900087
:101250008BE0B40C00505D90125EF82828730212E7
:10126000820212870212B402128C0212B40212918C
:101270000212960212B402129B0212A00212A502DE
:1012800012AA12107C80261214A280211215098045
:101290001C12134F80171208D580121200A6800D61
:1012A000120CB580081201BB80031216EE9000A943
:1012B000EFF080069000A974FFF0E4FF12195A9035
:1012C00000A9E0B4FF0312188E9000A9E0FF2212DB
:1012D00019659000A6EFF01219709000A7EFF012B8
:1012E000197B9000A6E07007A3E07003EF605F1227
:1012F00019869000A8EFF09000A6E0FC30E3229061
:101300000099E0FE30E108900098E06403600BEE85
:1013100030E20E900098E0B402079000A7E044018C
:10132000F0EC30E2031217B29000A6E030E10312B5
:10133000199B9000A6E030E00312190B9000A7E083
:1013400030E003120FD89000A8E0FF12195A229043
:1013500000AA74FFF090008CE0FEA3E0FFC394802D
:10136000EE9400505F900090E07002A3E070559002
:10137000008AE0541F704D90008EE07002A3E07070
:1013800043900088E0B4030BEF4E601D7F041217FA
:10139000238016900088E0B4041490008CE0700262
:1013A000A3E070057F03121723E49000AAF09000D9
:1013B000AAE07010F59690008CA3E04480F597E5C4
:1013C0009620E7FB9000AAE0FF229000B4EFF09097
:1013D00000B6EBF0A3EAF0A3E9F09000B5EDF0D38E
:1013E00094004054E59620E7FB9000B4E0FE44E012
:1013F000F5969000B6E01460172403602924FE706F
:10140000379000B5E0FFA3A3A3E0FDAB0602183EB2
:101410009000B5E0FFA3A3E0FAA3E0AC02FD9000CA
:10142000B4E0FB0217FE9000B5E0FFA3A3A3E0FD2C
:101430009000B4E0FB12181F229000AEEFF0E4A37E
:10144000F0EF60099000AEE0C3940140157BFF7A95
:1014500016799B7D4A7C001200119000AF74FCF05D
:10146000803A9000AEE075F007A42493F97400353B
:10147000F0FEAF01F583EF2405F582E43583F583B3
:10148000E064016017EF2405F582E43EF583740102
:10149000F0EF2406F582E43EF583E4F09000AFE03F
:1014A000FF229000AA74FFF0900090E07002A3E089
:1014B000705190008AE0541F24FE704790008CE029
:1014C0007002A3E0703D90008EE0FEA3E0547FFF29
:1014D0004E7010900088E0C394044007E49000AA86
:1014E000F08020C3EF9401EE94005017900088E044
:1014F000B40610E49000AAF090008EA3E0547FFFA1
:1015000012195A9000AAE0FF229000AA74FFF090EE
:101510000090E07002A3E0705190008AE0541F2414
:10152000FE704790008EE0FEA3E0547FFF4E7010E7
:10153000900088E0C394044007E49000AAF0802A59
:10154000C3EF9401EE9400502190008CE07002A350
:10155000E07017900088E0B40610E49000AAF090C4
:10156000008EA3E0547FFF12195A9000AAE0FF22D8
:101570009000B4EEF0A3EFF0A3ECF0A3EDF0A3EA3B
:10158000F0A3EBF0E4A3F0A3F09000B8E0FEA3E03A
:10159000FFA3E0FCA3E0FDC39FEC9E50389000B792
:1015A000E02DFF9000B6E03CFE1218A5AD079000BC
:1015B000BAE0FEA3E0FF9000B5E02FFF9000B4E09A
:1015C0003EFE1217549000BBE004F070BC9000BACD
:1015D000E004F080B4229000B6EBF0A3EAF0A3E9B7
:1015E000F09000B4EEF0A3EFF09000BBEEF0A3EFAC
:1015F000F09000B9E0FEA3E0FF9000B5E02FFD9071
:1016000000B4E03EFC9000BBE0FEA3E0FFC39DEE13
:101610009C50279000B6E0FBA3E475F001120BF09C
:10162000A9F0FA120B82FD1217549000BCE004F0EE
:1016300070BF9000BBE004F080B7229000B4EBF0E4
:10164000A3EAF0A3E9F0A3ECF0A3EDF0E49000BB73
:10165000F0A3F09000B9E0FEA3E0FFA3E0FCA3E05C
:10166000FDC39FEC9E50339000B8E02DFF9000B773
:10167000E03CFE1218A59000B4E0FBA3E475F00175
:10168000120BF0A9F0FAEF120BC89000BCE004F0C6
:1016900070C19000BBE004F080B922433A5C5573FE
:1016A0006572735C746573745C4465736B746F709E
:1016B0005C4D65726C696E5F41505C5553422D42C2
:1016C0004C2D312832303135303632365F563229A2
:1016D0005C6C69625C65666D385F7573625C7372C1
:1016E000635C65666D385F757362642E63007FFFAF
:1016F00090008EA3E0FE90008CA3E0FDEEC394006A
:101700005020900088E0B40619900090E07002A389
:10171000E0700FED700C90008AE0541FFEBE0102D5
:10172000E4FF229000ABEFF0900088E09000ACF076
:10173000C39405400B9000ABE09405500312185B76
:101740009000ABE0FFB40506A3E0900089F09000A4
:1017500088EFF022A2AF9200C2AF75FFA075EF0232
:101760008E088F0975B7A575B7F1438F0175FFA076
:1017700075EF02850982850883EDF0538FFEA20084
:1017800092AF22A2AF9200C2AF75FF8075EF028EBA
:10179000088F0975B7A575B7F1438F0375FF80757D
:1017A000EF02850982850883E4F0538FFCA2009242
:1017B000AF229000987401F0F596F597E59620E732
:1017C000FB75960B75970FE59620E7FBE5C9A2E63A
:1017D00050047F0380027F0112172322900098E0BB
:1017E000B4011A900093EBF0A3EAF0A3E9F0AF057F
:1017F000A3ECF0A3EFF0A37402F0E4A3F0228D8237
:101800008C831FEF600BE59620E7FBE597F0A38044
:10181000F1E59620E7FBEB4420F596E597F022A84A
:10182000051FEF600BE59620E7FBE597F20880F1D6
:10183000E59620E7FBEB4420F596E597F222A80514
:101840001FEF600AE59620E7FBA6970880F2E59671
:1018500020E7FBEB4420F596A697229000AD74019B
:10186000F09000ADE0FFC39401500B1214399000CA
:10187000ADE004F080EB228D828C83AE071FEE601A
:101880000CE59620E7FBE493F597A380EE22E4FFB6
:1018900012195A9000987405F0759611759720E505
:1018A0009620E7FB22A2AF9200C2AF8E088F098F6D
:1018B000828E83E493FFA20092AF228D828C83AE4E
:1018C000071FEE600BE59620E7FBE0F597A380EF9E
:1018D00022A805AE071FEE600BE59620E7FBE6F5B4
:1018E000970880EF22A805AE071FEE600BE5962053
:1018F000E7FBE2F5970880EF229000ADEFF0A3ED53
:10190000F0A3EAF0A3EBF0E4FEFF22900088E0C32E
:10191000940240057F0512172322759691E59620C3
:10192000E7FBE597A2E422759691E59620E7FBE5B3
:1019300097A2E222759691E59620E7FBE597A2E152
:10194000229000987401F043D78043D740227596C7
:1019500091E59620E7FBE597132275960E8F97E5A4
:101960009620E7FB22759686E59620E7FBAF972247
:10197000759682E59620E7FBAF9722759684E596EB
:1019800020E7FBAF972275968EE59620E7FBAF9791
:101990002242000000004100BF0000900089E0FFEB
:1019A0000217231201010211000040350871FF20C7
:1019B0000101020301090209000001048032050F40
:1019C0001900011410040005A04F5A082149BBB2A8
:1019D000E30E74FF0894AD0403090401220341637C
:1019E00074696F6E205374617220546563680001DE
:1019F00018035553422055706772616465000104F5
:101A0000033000011803555342205570677261641A
:101A10006500013C03687474703A2F2F7777772E36
:101A2000616374696F6E737461722E636F6D2E746F
:101A3000772F000118035553422055706772616477
:101A40006500FF19D7FF19DBFF19EFFF19FEFF1A19
:101A500003FF1A12FF1A33FF19A3FF19B5FF1A4229
:011A6000077E
:020000040000FA
:10200000022066E4F5BF53D9BFF5D9220242FC7F16
:1020100017124AA322023E0F80FE220238DB7FFF06
:102020007867E61846703D18E6184670377869E616
:1020300064011846702E7862E6FE30E727541F7060
:10204000237860E6B404087BFF7A4F796C800C78C3
:1020500060E6B4060F7B007A00795E7D017C001299
:102060004B67E4FF222253D9BF787FE4F6D8FD7591
:1020700081880242B78A3C8B3DED6003022CC8EF99
:10208000600764026003022CB590018AE0122F28D9
:1020900020B50020B8012124022BCA0F215611219E
:1020A000911223D6132738142760152996162A244F
:1020B0001700002CAF02298B7FFB7E7D124BF7901F
:1020C000018BEFF07FFA124BF790018CEFF07FFD60
:1020D000124BF790018DEFF07FFC124BF790018EC1
:1020E000EFF07FF9124BF790018FEFF07FF8124B72
:1020F000F7900190EFF0A374FFF0A3F0A3F0A3F02A
:102100007FF0124BF7900195EFF0A374FFF07FF38F
:10211000124BF7900197EFF07FF2124BF790019876
:10212000EF022BC690018BE0FCB41E0CA3E0B48040
:1021300007A3E0FD7F808010ECB41E1190018CE0BD
:10214000B4810AA3E0FD7F817E1E124A299000001F
:102150007411F0022CB5E5F820E00943A40D43F812
:1021600001124BAEE4F540F54174272541F5827428
:10217000003540F583E4F00541E541700205406417
:102180003E454070E4123CDB9000007411F00223E5
:10219000CDE5F820E00943A40D43F801124BAE90C1
:1021A000018DE0640260030222D190018CE024FCE6
:1021B000FF90018BE06F60030222D1F540F541747E
:1021C000892541F58274013540F583E0FF74482587
:1021D00041F8A6070541E541700205406408454005
:1021E00070DDE4F540F54174892541F582740135CF
:1021F00040F583E0FF74792541F58274033540F59D
:1022000083EFF00541E541700205406440454070B0
:10221000D6124D5C124B29EF5403FFBF02F6E4F5D2
:1022200040F54174482541F8E6FF74892541F5825F
:1022300074013540F583EFF00541E541700205403A
:102240006408454070DD124603124B29EF540370B9
:10225000F8E54B24FC90018BF0A37404F0A314F078
:10226000A3E54DF0A3E54EF0A3E54FF0123CDBE40F
:10227000F55090018BE0FFE550C39F5023742B2550
:1022800050F582E43400F583E0FF74812550F58237
:10229000E43403F583E06F6003754AFE055080D295
:1022A000E4F540F54174482541F8E6FF748925417D
:1022B000F58274013540F583EFF00541E541700288
:1022C00005406408454070DD9000007411F0022361
:1022D000CD90018DE0B4021290018CE0FF90018B53
:1022E000E0B5070674FDF00223C790018BE0700390
:1022F0000223C490018DE0642060030223C4F540F2
:10230000F54174892541F58274013540F583E0FF7C
:1023100074482541F8A6070541E54170020540646F
:1023200008454070DD90018BE0FFD3941E40087596
:10233000420075431E80057542008F4390018EE078
:10234000F544A3E0F545E4F540F541C3E541954387
:10235000E54095425044124D5C124B29EF5403FF67
:10236000BF02F690018AE549F0A3E54AF0A3E54BE8
:10237000F0E54C1245F6E545B4F0070544E4F545B3
:10238000800674102545F545124B29EF540370F86B
:102390000541E54170B5054080B1E4F540F5417473
:1023A000482541F8E6FF74892541F58274013540DE
:1023B000F583EFF00541E5417002054064084540B2
:1023C00070DD80031246039000007412F053A4F2F3
:1023D00053F8FE022CB590018BE0FD64907071A360
:1023E000E0B4010EE5F830E00953F8FE53A4F21210
:1023F0004BAE90018CE0FF700CA3E590F0900000D4
:102400007412F08048E5A054F064407029EF64082D
:10241000702490018DE0FF70054390088007EFB4B1
:1024200008035390F7124BAE90018CE05590A3F047
:10243000E06408F0801790018CE05590FFA3E06FF6
:102440006290124BAE90018CE05590A3F002298B64
:10245000ED6480702590018CE0FF7006A3E580029A
:1024600026D9E5805FFF90018DE06F6280124BAE50
:1024700090018CE05580A30226D990018BE0FD6489
:10248000F17022A3E0FF7005A3E5F18015E5F15F8F
:10249000FF90018DE06F62F1124BAE90018CE05520
:1024A000F1A30226D9ED64A4702490018CE0FF70A2
:1024B00005A3E5A48015E5A45FFF90018DE06F62A0
:1024C000A4124BAE90018CE055A4A30226D9900132
:1024D0008BE0FD64A07022A3E0FF7005A3E5A0805F
:1024E00015E5A05FFF90018DE06F62A0124BAE90EA
:1024F000018CE055A0A30226D9ED64F3702490016D
:102500008CE0FF7005A3E5F38015E5F35FFF900114
:102510008DE06F62F3124BAE90018CE055F3A30295
:1025200026D990018BE0FD64A67022A3E0FF700520
:10253000A3E5A68015E5A65FFF90018DE06F62A67A
:10254000124BAE90018CE055A6A30226D9ED64BCD7
:10255000702490018CE0FF7005A3E5BC8015E5BCFC
:102560005FFF90018DE06F62BC124BAE90018CE07A
:1025700055BCA30226D990018BE0FD64BE7022A356
:10258000E0FF7005A3E5BE8015E5BE5FFF90018DFD
:10259000E06F62BE124BAE90018CE055BEA30226E6
:1025A000D9ED64BD702490018CE0FF7005A3E5BDFA
:1025B0008015E5BD5FFF90018DE06F62BD124BAEEF
:1025C00090018CE055BDA30226D990018BE0FD64FB
:1025D000C47022A3E0FF7005A3E5C48015E5C45FC5
:1025E000FF90018DE06F62C4124BAE90018CE055FC
:1025F000C4A30226D9ED64C3702490018CE0FF705F
:1026000005A3E5C38015E5C35FFF90018DE06F6210
:10261000C3124BAE90018CE055C3A30226D99001A2
:102620008BE0FD64C67022A3E0FF7005A3E5C680C1
:1026300015E5C65FFF90018DE06F62C6124BAE904C
:10264000018CE055C6A30226D9ED64C57023900124
:102650008CE0FF7005A3E5C58015E5C55FFF90011F
:102660008DE06F62C5124BAE90018CE055C5A38022
:102670006890018BE0FD64E87039A3E0FF7003A36C
:10268000802CE5E85FFF90018DE06F62E8124BAEB1
:1026900090018CE055E8A3F0124BAE90018FE5BE9F
:1026A000F0A3E5BDF053E8DF124BAE90018EE5E8F4
:1026B000022A20ED64BB702490018CE0FF7005A31A
:1026C000E5BB8015E5BB5FFF90018DE06F62BB123B
:1026D0004BAE90018CE055BBA3022A2090018BE009
:1026E000FD64BA7022A3E0FF7005A3E5BA8015E58A
:1026F000BA5FFF90018DE06F62BA124BAE90018C11
:10270000E055BAA3022A20ED64D1702490018CE038
:10271000FF7005A3E5D18015E5D15FFF90018DE045
:102720006F62D1124BAE90018CE055D1A3022A20EA
:1027300090018B74FD022BC6900021E07002A3E093
:102740006003022CB575C1D0124BAE90018CE03005
:10275000E0051243798003124771E4F5C1022BBEF4
:1027600090018BE0FF700302298EA3E06F600302EB
:10277000298EE5F820E00643A40D43F801E4F54076
:10278000F54174892541F58274013540F583E0FFF8
:1027900074482541F8A6070541E5417002054064EB
:1027A00008454070DD90018BE0FFD3941E40087512
:1027B000420075431E80057542008F4390018FE0F3
:1027C000F544A3E0F545E4F540F541C3E541954303
:1027D000E54095425041124D5C124B29EF5403FFE6
:1027E000BF02F6E490018AF0A37404F0A3F0742011
:1027F0001245F6E545B4F0070544E4F54580067456
:10280000102545F545124B29EF540370F80541E5B5
:102810004170B8054080B4E54AD3941E4008754223
:102820000075431E8006754200854A43E543AE426B
:102830007805C333CE33CED8F9F5438E42854C4666
:10284000854D47854E44854F45E4F540F541C3E548
:10285000419543E5409542400302296390018C7401
:1028600004F0A314F0A3E546F0A3E547F0E54130FA
:10287000E006A37480F08005E4900190F012405EC1
:10288000124B29EF540370F8E4F550742B2550F5E2
:1028900082E43400F583E0FF74F02550F582E434DF
:1028A00001F583EFF00550E550B480DF124D5C1266
:1028B0004B29EF5403FFBF02F690018D7402F0A381
:1028C000E544F0A3E545F0E54130E006A37480F06F
:1028D0008005E4900190F012452C124B29EF54032F
:1028E00070F890018C7404F0A314F0A3E544F0A3F5
:1028F000E545F0E54130E006A37480F08005E49002
:102900000190F012405E124B29EF540370F8E4F589
:1029100050742B2550F582E43400F583E0FF74F009
:102920002550F582E43401F583E06F6003754AFEBB
:102930000550E550B480DAE54130E01CE545B4FFD0
:10294000070544E4F54580020545E547B4FF070562
:1029500046E4F547800205470541E5417002054020
:1029600002284EE4F540F54174482541F8E6FF742D
:10297000892541F58274013540F583EFF00541E585
:1029800041700205406408454070DD022BBE900195
:102990008B74FD022BC6E5F830E00653A4F253F821
:1029A000FEE4F5C1E5A054F0FFBF30065390FB02F2
:1029B0002CB5E5A054F0FFBF90065390DF022CB574
:1029C00090018CE0FD900188F090018DE0FC900179
:1029D000C9F090018EE07F00FE90001EF0A3EFF0A2
:1029E000C394FAEE9400500990001EE4F0A374FA28
:1029F000F090018FE07F00FE900021F0A3EFF0C384
:102A000094FAEE94005009900021E4F0A374FAF0D7
:102A1000E5805D6C6280124BAE90018CE05580A326
:102A2000F0022CA790018BE0FF7003022BC1A3E002
:102A30006F6003022BC1E5F820E00643A40D43F8C4
:102A400001E4F540F54174892541F5827401354072
:102A5000F583E0FF74482541F8A6070541E541707C
:102A60000205406408454070DD90018BE0FFD3947F
:102A70001E400875420075431E80057542008F4355
:102A8000E54AD3941E400875420075431E800675C2
:102A90004200854A43E543AE427805C333CE33CE88
:102AA000D8F9F5438E42854C46854D47854E448581
:102AB0004F45E4F540F541C3E5419543E540954276
:102AC0004003022B9690018C7404F0A314F0A3E54C
:102AD00046F0A3E547F0E54130E006A37480F080BE
:102AE00005E4900190F012405E124B29EF54037000
:102AF000F8E4F550742B2550F582E43400F583E0BA
:102B0000FF74F02550F582E43401F583EFF00550B1
:102B1000E550B480DF90018C7404F0A314F0A3E5B9
:102B200044F0A3E545F0E54130E006A37480F08071
:102B300005E4900190F012405E124B29EF540370AF
:102B4000F8E4F550742B2550F582E43400F583E069
:102B5000FF74F02550F582E43401F583E06F6003E3
:102B6000754AFE0550E550B480DAE54130E01CE5D9
:102B700045B4FF070544E4F54580020545E547B443
:102B8000FF070546E4F547800205470541E541702A
:102B9000020540022AB7E4F540F54174482541F8A2
:102BA000E6FF74892541F58274013540F583EFF025
:102BB0000541E541700205406408454070DD022C86
:102BC000A790018B74FDF0022CA790018BE0645557
:102BD0006003022CA1A3E064AA6003022CA17F8100
:102BE0007E1E124BF7AD07EDF46006EDC39407505F
:102BF000027D07E4F542F543EDFFC3E5439FE5425F
:102C000094005023E4F540F541124D4D0541E54156
:102C100070020540C394FFE540940040EC0543E595
:102C20004370D5054280D1E4F540F541124D4D0584
:102C300041E54170020540C39441E540940040ECF9
:102C400053D77FE4F540F541124D4D0541E5417004
:102C5000020540C394FFE540940040ECE4F542F5E2
:102C600043EDFFC3E5439FE54294005023E4F54064
:102C7000F541124D4D0541E54170020540C394E810
:102C8000E540940340EC0543E54370D5054280D10F
:102C90007BFF7A0279008B138A148915122F4E80DC
:102CA0001490018B74FDF09000007412F080069077
:102CB000018B74FDF07B017A017989755500755699
:102CC00040D2077F02123F3EE4FEFF227B1F7DFFC2
:102CD0007F20124CFB7B307DF87F20124CFB7D8DDA
:102CE000124CF7E4FB7DB37F8E124CFB0D7F8E12EE
:102CF0004CFB0D7F8E124CFB0D7F8E124CFB7B80AC
:102D00007DC07F20124CFB7DD07F52124CFB7B108C
:102D10007DF97F20124CFB7B047D3F7F20124CFB12
:102D20007B907D077F20124CFB7B3F7D0C7F201228
:102D30004CFB7BF87D1C7F20124CFB7BD27D1E7FE1
:102D400020124CFB7B060D7F20124CFB7B017D2C5F
:102D50007F20124CFB7BC00D7F20124CFB7B0C7D37
:102D6000367F20124CFB7B747D8B7F20124CFB7BCB
:102D7000097D977F20124CFB7D9D7F20124CFB7BB1
:102D8000E07DA07F20124CFB7BA07DA27F20124C17
:102D9000FB7B0F7DAD7F20124CFB7B747DBE7F20C3
:102DA000124CFB7BC17DC37F20124CFB7B2D7DC968
:102DB0007F20124CFB7B0F7DDF7F20124CFB7B11B1
:102DC0000D7F20124CFB7BAA7DE27F20124CFB7B07
:102DD000397D377F52124CFB7B327D5F7F52124C24
:102DE000FB7B227D827F52124CFB7BCB7D847F520A
:102DF000124CFB7B727D937F52124CFB7B300D7F1C
:102E000052124CFB7B227DB27F52124CFB7BC00DD9
:102E10007F52124CFB7BCB0D7F52124CFB7B107D03
:102E2000B87F52124CFB7B727DCF7F52124CFB7BE2
:102E3000657DFA7F20024CFBBB010689828A83E014
:102E4000225002E722BBFE02E32289828A83E493B6
:102E500022BB010CE58229F582E5833AF583E02265
:102E60005006E92582F8E622BBFE06E92582F8E253
:102E700022E58229F582E5833AF583E49322F8BBC3
:102E8000010DE58229F582E5833AF583E8F02250C9
:102E900006E92582C8F622BBFE05E92582C8F22292
:102EA000BB0110E58229F582E5833AF583E0F5F070
:102EB000A3E0225009E92582F886F008E622BBFE4D
:102EC0000AE92582F8E2F5F008E222E5832AF58393
:102ED000E993F5F0A3E99322BB010789828A830273
:102EE0002F5D5005E9F8022F54BBFE05E9F8022FCB
:102EF0006689828A83022F6FBB010DE58229F582E4
:102F0000E5833AF583022F5D5007E92582F8022F09
:102F100054BBFE07E92582F8022F66E58229F58277
:102F2000E5833AF583022F6FD083D082F8E4937063
:102F300012740193700DA3A393F8740193F5828822
:102F400083E4737402936860EFA3A3A380DF8A8392
:102F50008982E473E6FB08E6FA08E6F922E0FBA3BF
:102F6000E0FAA3E0F922E2FB08E2FA08E2F922E43F
:102F700093FB740193FA740293F9228F377538FD2D
:102F8000A807E6FFC4135403600302303AEFC413EA
:102F90001313540120E00302303AE6541F64016029
:102FA0000302303AE804F8E624FA6003023092E5BE
:102FB000372402F9E764227038E5372404F8E6FE86
:102FC00008E66003023092EE60030230927BFF7AE3
:102FD0004E7995E5372406F8E6FE08E6FFC374222D
:102FE0009FE49E500A7C007D227E007F22804580E7
:102FF00043E5372402F9E764216003023092E537A4
:103000002404F8E6FE08E66003023092EE60030254
:1030100030927BFF7A4E79DBE5372406F8E6FE082E
:10302000E6FFC374099FE49E500A7C007D097E0080
:103030007F0980008E3D8F3E8039A837E6FFC4139C
:1030400054036401704CEF541F64017045E804F8A8
:10305000E624F7602724087039E5372402F808E6EB
:103060006403702E1246BB7B017A017947753D00DF
:10307000753E40C206E4FF12375D80137B017A0182
:103080007989755500755640D207E4FF123F3EE43A
:10309000F538AF3822900019E02427F582E4340097
:1030A000AD82F5238D2475250175264C900147745A
:1030B00003F090018AE0900148F090018BE09001CC
:1030C00049F090018CE090014AF090018DE0FE9073
:1030D000014BF064026008EE640360030231639008
:1030E000018EE0FE0526E526AC257002052514F5C7
:1030F000828C83EEF090018FE0FE0526E526AC255C
:103100007002052514F5828C83EEF0900190E0FEAC
:103110000526E526AC257002052514F5828C83EE84
:10312000F0E4FF0524E524AC237002052314F582A6
:103130008C83E0FE0526E526AC257002052514F5F6
:10314000828C83EEF074272FF582E43400F583E45B
:10315000F074892FF582E43401F583E4F00FBF3871
:10316000C28040E4FF0524E524AC2370020523144B
:10317000F5828C83E0FE0526E526AC257002052548
:1031800014F5828C83EEF074272FF582E43400F579
:1031900083E4F074892FF582E43401F583E4F00FC1
:1031A000BF3BC2750F4022E4FDFC753CFF7862E630
:1031B000648060030232B47864E6FE08E6F538EE17
:1031C000FFE46003023292EF24FE602A14604E2472
:1031D000026003023292E538600302329278808600
:1031E0000308E6FA08E6F98B398A3AF53B122E38DD
:1031F0007C00FD023292E5386003023292788386C9
:103200000308E6FA08E6F98B398A3AF53B900002A2
:10321000122EA0FAE5F0FFEAFCEFFD8075788686B5
:103220000308E6FA08E6F975F003E538A4F58285A7
:10323000F083122EF88B398A3A893BE538700BFC03
:103240007D04786AE65480F680487866E6FE08E6F3
:10325000FF4E600AEF64097003EE64047034E538D1
:10326000C3785F96502CAB39AA3AA93B9000011263
:103270002E517C00FD122E38547FFF786AE6548070
:103280004FFFF67401253BF53BE4353AF53AEF4440
:1032900080F6ED4C601E7868E6FE08E6FFD3ED9FF1
:1032A000EC9E4004AC06AD07AB39AA3AA93B124BE1
:1032B00067E4F53CAF3C227B107A10E4F9FDFCEDAD
:1032C000AE047802C333CE33CED8F92400FFEE34F7
:1032D0001EFE124BF7BFFF04AB05800B0DBD0001B6
:1032E0000CED64104C70D8E4F9EBC39410503FEB34
:1032F000C394014039EB14FA75F004A42400124B76
:10330000F1EF64F17028EA75F004A42401124BF186
:10331000EF701BEA75F004A42402124BF1BF010EFA
:10332000EA75F004A42403124BF1BF010109E9601E
:10333000030233C4EB75F004A42400FFE5F0341E4F
:10334000FE7DF1124A29EB75F004A42401FFE5F09B
:10335000341EFEE4FD124A29EB75F004A42402FF9A
:10336000E5F0341EFE0D124A29EB75F004A4240387
:10337000FFE5F0341EFE124A29EB700FEB75F004E6
:10338000A42440FFE5F0341EFE8036EB24FFFFE46A
:1033900034FFFEEF7802C333CE33CED8F92440FF9A
:1033A000EE341EFE124BF7AA070AEAC394FE40024F
:1033B0007AFEEB75F004A42440FFE5F0341EFEAD68
:1033C00002124A29227871E6139206786EE6FE0808
:1033D000E6FFC39440EE940040047F4080008F37A6
:1033E000853738786AE6FF547F64017068EF30E70C
:1033F0002608860308E6FA08E6F9C2087D02E4FF1B
:10340000124459786D740226F618E436F61537150D
:1034100037786AE6547FF6E4F539E537C313FFE5FC
:1034200039C39F504D786B860308E6FA08E6F9C267
:10343000087D01E4FF124459786D740126F618E402
:1034400036F67BFF7A4F796CC2087D01E4FF1244A7
:1034500059053980C5786B860308E6FA08E6F9C293
:1034600008AD37E4FF124459786DE53726F618E4C5
:1034700036F67871E654FBF6C3786FE69538FF1898
:10348000E69400FEF608EFF64E701EE538644060E4
:103490001875961175970AE59620E7FB7870760106
:1034A000E4786AF67871F6800B759611759702E5E7
:1034B0009620E7FB300614E538FB7A00786EE6F5D7
:1034C0003E08E6F53FE4FDFF12207522604001470B
:1034D00000000000000000000000000000000000EC
:1034E00000000000000000000000000000000000DC
:1034F00000000000000000000000000000000000CC
:1035000000000000000000000000000000000000BB
:103510006040018900000000000000000000000081
:10352000000000000000000000000000000000009B
:10353000000000000000000000000000000000008B
:10354000000000000000000000000000000000007B
:10355000000000004100190041000E004100000081
:1035600041001AFE010F00410001804101468041E7
:1035700001870041001B0042001C006442001E0045
:10358000004200210000410188004101C9004100C2
:1035900026FF410020F04100230F41013F0042017E
:1035A00040000042014200004201440000C100C14D
:1035B00003C104C101C102010800010900010A00A0
:1035C000020D0000020B000000C2067F01124E0631
:1035D000124DE15015759694E59620E7FB5397BF81
:1035E000E59620E70302369680F6124DFA40030274
:1035F000369612200F8F37787EE66403600A08E65D
:103600004402F67538F9806DC3787DE6953718E683
:103610009400500E787E760108E64402F67538F282
:1036200080537879860308E6FA08E6F9AD377F011A
:103630001247BB787FE654FDF6AF377E00C3787D36
:10364000E69FF618E69EF618EF26F618EE36F678A0
:103650007DE618466006E53764406006787E7601B0
:10366000D206E4F538759694E59620E7FB5397FE6D
:10367000E59620E7FB787FE630E01B30060354FE3A
:10368000F6E537FB7A00787CE6F53E08E6F53FADD7
:10369000387F02122075227538FF7864E6FC08E650
:1036A000FDEC600302375A7862E6541F600302376C
:1036B0005A7869E61846600302375A18E6184660D9
:1036C0000302375A7860E664047048ED4C6019785C
:1036D00083860308E6FA08E6F9900005122E517871
:1036E0006566700218E670727865E6785EF6788333
:1036F000860308E6FA08E6F9900005122E5178656F
:1037000066700218E67050D206124A527F061249BD
:10371000CA80447860E6640670407864E6FE08E695
:10372000FF4E60177883860308E6FA08E6F99000F2
:1037300005122E51B50723E4B5061F7865E6785EBD
:10374000F67865E61846700A7F041249CA124AE7FD
:103750008005C206124A52E4F538AF38228F398B01
:103760003A8A3B893CE539601514601280007BFF82
:103770007A4979FA7D917C021220187FFC22E53982
:10378000600A7860E6640660037FF722E53975F029
:1037900007A4246BF9AF01EF2405F8E6FE6401608D
:1037A00009EE7FFEB405027FFB22E5E6A2E1920767
:1037B00053E6FDAA3BA93CA807A63A08A60208A61C
:1037C00001EF2403F8A63D08A63EEF2405F8760293
:1037D000A206E4335401FEEF2406F8E654FE4EF64A
:1037E000E53914600B04702C7871E64404F68024EB
:1037F000D3E53E9440E53D940040047D408004AF15
:103800003EAD077872860308E6FA08E6F9D2087F2B
:103810000112445930070343E6027F0022E5962057
:10382000E7FB8F96EB6024B401398A838982ED1D12
:1038300070067DFFEC60131CE59620E7FBE0F59732
:103840000582E5827002058380E422E9F8ED1D70AF
:10385000067DFFEC600C1CE59620E7FBE6F597087B
:1038600080EB228A838982ED1D70067DFFEC601457
:103870001CE59620E7FBE493F5970582E58270024C
:10388000058380E322EB602E8A838982ED7004EC4D
:1038900060231CE59620E7FB8F964396C0E59620B3
:1038A000E7FBE597F0DD04EC600B1C0582E5827018
:1038B000EC058380E822E9F8ED7004EC601C1CE55F
:1038C0009620E7FB8F964396C0E59620E7FBE597A9
:1038D000F2DD04EC60041C0880EF22C0E0C0F0C000
:1038E00083C082C0D075D000C000C001C002C00338
:1038F000C004C005C006C00785BF3275BF00124EA8
:10390000118F33124E1C8F34124E278F35124E32C8
:103910008F36E53330E32E124E7E124E847871E6F8
:10392000FF30E10618E66403600AEF30E2097870C0
:10393000E6B40203433401787FE630E10818E6B4C8
:103940000303433502E53330E203124884E53330A4
:10395000E103124E77E53330E003124D6BE534306E
:10396000E103123B94E53530E1031235C9E534300B
:10397000E003123C3CAF36124E068532BFD007D072
:1039800006D005D004D003D002D001D000D0D0D0D2
:1039900082D083D0F0D0E0327BDF7D447F20124C98
:1039A000FB7B987D567F20124CFB7B100D7F2012F5
:1039B0004CFB7B857D5B7F20124CFB0D124CF77B13
:1039C000897D617F20124CFB1B7D697F20124CFB9F
:1039D0007BF97D6B7F20124CFB7BDB7D6E7F2012A1
:1039E0004CFB7BFF7D727F20124CFB7B687D747FDC
:1039F00020124CFB7B040D7F20124CFB7BE57D836A
:103A00007F52124CFB7BC17D9D7F52124CFB7B147D
:103A10007D607F8E124CFBE4FB7D787F8E124CFB29
:103A20007B067DA87F8E124CFB7BCB7DAA7F8E12FE
:103A30004CFB7B727DB17F8E124CFB7B230D7F8E06
:103A4000024CFB7538FF7869E66402184660030291
:103A50003AE97865E618466003023AE97862E6FFDB
:103A600020E703023AE97860E6FEC39404407AE472
:103A7000F516F517EF541F14601214601D24027020
:103A8000597867E618467052F538804EC37867E675
:103A9000940118E694005042803D7866E6FC08E602
:103AA000FDAA04547F4A7006EEB4040280297860AF
:103AB000E6B40626ED247F60122480701D787EE631
:103AC000B40606751601751700800C7877E6B40603
:103AD00006751601751700E4F538E538700BFB7AAA
:103AE0000079167D02FC124B67AF38227538FF78DB
:103AF00069E618466003023B917862E6541F24FE93
:103B00006003023B917865E618466003023B9178BA
:103B100066E6FE08E6547FFF4E700D7860E6C394BB
:103B2000044005E4F5388069C3EF9403EE94005037
:103B3000607860E664067059F5387867E6547FFF70
:103B4000124E067867E630E70B759611759740E5DB
:103B50009620E7FB7867E620E718759694E59620AF
:103B6000E7FB5397DFE59620E7FB439780E5962038
:103B7000E7FB7867E6247F600F24807014787EE688
:103B80006403600D760180097877E664026002764E
:103B900001AF38227F01124E06124DD45010759697
:103BA00011E4F597E59620E703023C3B80F6787731
:103BB000E664026003023C3B7875E6FE08E6FFD34C
:103BC0009440EE940040047F4080008F377E00C315
:103BD0007876E69FF618E69EF618EF26F618EE368B
:103BE000F67878E61392067875E6FE08E6FFD39439
:103BF00000EE94004024D3EF9440EE940040047D06
:103C00004080047876E6FD7872860308E6FA08E6D6
:103C1000F9D2087F0112445980097878E654FEF6FB
:103C2000187601300615E537FB7A007875E6F53E23
:103C300008E6F53FE4FD7F0112207522E4FF124EF5
:103C400006124DBA4005124DAD501D759611E4F5A2
:103C500097E59620E7FB759611759780E59620E726
:103C6000FB78707601E408F6124DEE505F7871E64D
:103C7000FF30E30280537870E66401703E786AF6A4
:103C80001245927F62122F7BBFFD147862E6FFC45B
:103C900013540370051240E88032124CA6802D7830
:103CA00062E620E7277870E6640360207869E6180A
:103CB0004660197871E64408F680117870E6B4031E
:103CC00005123EA780067871E64402F67870E6B4E5
:103CD0000208124DC740031233C5227551017552B7
:103CE0008D7553007554B390018BE0F555A3E0F545
:103CF00056E555607FD3943F507AE5566076D3946D
:103D0000085071E4FFEFC3955650250552E552ACBB
:103D1000517002055114F5828C83E0FE0554E55480
:103D2000AC537002055314F5828C83EEF00F80D5EE
:103D3000E4FFEFC3955550140554E554AC5370029D
:103D4000055314F5828C83E4F00F80E67E007FB388
:103D50007C007D27E5562555F55C7B031241F73045
:103D600083FD900019E556F090000EE555F09000A7
:103D7000007401F0228B2E8A2F893053E6FD122029
:103D800065E4FF745E2FF8E4F60FBF2BF6AB2EAAA6
:103D90002FA930122ED87880A60308A60208A60103
:103DA000AB2EAA2FA930900003122EF87883A60319
:103DB00008A60208A601AB2EAA2FA9309000061271
:103DC0002EF87886A60308A60208A601AB2EAA2F15
:103DD000A930900009122E51785FF653A98F43D76E
:103DE00020759601759708E59620E7FB75960B758B
:103DF000970FE59620E7FB124E487860760343E67E
:103E000002759601759701E59620E7FB7F0022C0B9
:103E1000E0C0F0C083C082C0D075D000C000C00137
:103E2000C002C003C004C005C006C007E5F854F0D6
:103E3000FFF4440F52F8EF30E752E508602C3001F0
:103E400013850C82850B83E5A3F0050CE50C700748
:103E5000050B800385A331D5080D30030530000222
:103E6000D2FA12201A800385080AE509601E30F98B
:103E70001B300213850E82850D83E0F5A3050EE548
:103E80000E7007050D800375A3001509D007D00635
:103E9000D005D004D003D002D001D000D0D0D08241
:103EA000D083D0F0D0E0327871E6139206124E3D06
:103EB0008F37C3786FE69F18E69400500E787076BF
:103EC0000108E64402F67538F2805A786B860308DA
:103ED000E6FA08E6F9AD37E4FF1247BBAF377E00DC
:103EE000786DEF26F618EE36F6C3786FE69FFF186A
:103EF000E69EFEF608EFF6E4F538EF4E701CE53767
:103F000064406016759611759748E59620E7FB7832
:103F100070760108E654FEF6800B75961175974091
:103F2000E59620E7FB300615E537FB7A00786EE66C
:103F3000F53E08E6F53FAD38E4FF122075228F51BB
:103F40008B528A538954E551601624FE601280001A
:103F50007BFF7A4979FA7D1D7C011220187FFC22B3
:103F6000E551600A7860E6640660037FF722E55158
:103F700075F007A4246BF9AF01EF2405F8E6FE64A1
:103F8000016009EE7FFEB405027FFB22E5E6A2E1B7
:103F9000920853E6FDAA53A954A807A65208A60200
:103FA00008A601EF2403F8A65508A656EF2405F845
:103FB0007603A207E4335401FEEF2406F8E654FE2C
:103FC0004EF654F7F630080343E6027F00227538B8
:103FD000FF7869E61846600302405B7862E6541F8A
:103FE00024FE70777866E6FE08E6547FFF4E700D7B
:103FF0007860E6C394044005E4F538805EC3EF942E
:1040000003EE940050557865E61846704E7860E6E9
:1040100064067047F5387867E6547FFF124E0678DD
:1040200067E630E70B759611759710E59620E7FB6C
:104030007867E620E710759694E59620E7FB4397AE
:1040400020E59620E7FB7867E6247F600A248070ED
:104050000A787E7606800478777606AF3822755126
:104060000175528D7553007554B375558090018C50
:10407000E0F556E5566070D39408506BE4FFEFC34B
:10408000955650250552E552AC517002055114F574
:10409000828C83E0FE0554E554AC53700205531442
:1040A000F5828C83EEF00F80D5E4FFEFC395555079
:1040B000140554E554AC537002055314F5828C83F7
:1040C000E4F00F80E67E007FB37C007D27E5562577
:1040D00055F55C7B031241F73083FD900019E556DE
:1040E000F090000EE555F022E4F5377863E6B40C65
:1040F00000506A9040FAF828287302411E024125B8
:1041000002415D02412C02415D02413302413A020B
:10411000415D02414102414802414F024156123A7B
:10412000438F37803B123AEC8F378034123FCE8F6B
:1041300037802D1246598F3780261231A78F37804E
:104140001F12201E8F3780181236978F378011125A
:1041500048468F37800A1249998F3780037537FF99
:10416000E4FF124E06E537B4FF03124CA6AF372228
:10417000AE07E4FB124E06300813A80674107E004A
:10418000088005C333CE33CED8F9FF8013AF067451
:10419000207E00A807088005C333CE33CED8F9FFB0
:1041A000D3ED9FEC9E50034303803009034303404B
:1041B000300720430320300803430304759611752C
:1041C0009740E59620E7FB7596128B97E59630E7CA
:1041D0002580F9759614759780E59620E7FB75960E
:1041E000158B97E59620E7FB20080B759612E4F5F2
:1041F00097E59620E7FB228E578F58AF5CC207C227
:10420000AEE5A120E7FB200403124D1C85A35DC28F
:10421000FF300305300002C2FAE55C605430F91E3D
:10422000EF601BEB30E113855783855882E0F5A3DF
:104230000558E558700705578003E4F5A31F30FFC4
:1042400019C2FFEB30E00E8D828C83E5A3F00DBD2B
:1042500000010C800385A35D155C2003BC3000B910
:10426000200709E5A130E3B1D20780ADE5A120E345
:10427000A8300305300002D2FAAF5C220248C1E444
:1042800093A3F8E493A34003F68001F208DFF480DF
:1042900029E493A3F85407240CC8C333C4540F442F
:1042A00020C8834004F456800146F6DFE4800B0109
:1042B000020408102040809034CCE47E019360BC5E
:1042C000A3FF543F30E509541FFEE493A360010EA1
:1042D000CF54C025E060A840B8E493A3FAE493A3C8
:1042E000F8E493A3C8C582C8CAC583CAF0A3C8C5E9
:1042F00082C8CAC583CADFE9DEE780BEC0E0C0F07D
:10430000C083C082C0D075D000C000C001C002C050
:1043100003C004C005C006C00785BF2275BF005397
:10432000887F758DF0758B60900000E0B4030A7F84
:10433000031244C3900000E4F0900000E0B4110ABE
:104340007F111244C3900000E4F0900000E0B4122A
:104350000A7F121244C3900000E4F08522BFD00708
:10436000D006D005D004D003D002D001D000D0D0E8
:10437000D082D083D0F0D0E032124C3890018CE063
:1043800054FE124BA1124C0990018C124BA9E490DF
:104390000019F0C207124BBD90018EEFF0124BAE28
:1043A000E06041E4FDFC90018EE0FFC3ED9F74806E
:1043B000F86C985034124BAEE024FFFFE434FFFE5B
:1043C000EFB50508EEB50404D2078002C207124B10
:1043D000BD748F2DF58274013CF583EFF00DBD00A7
:1043E000010C80C2D207124BBD124C4E024D4D8FB4
:1043F0003CE4F53EE53C6005C3940340127BFF7A44
:104400004979FA7D4D7C00122018753EFC8041E50B
:10441000E6A2E1920753E6FDE53C75F007A4246BA4
:10442000F9893DE53D2405F8E664016023E53C2477
:10443000FE600A04700C7F0112493180057F011271
:104440004965E53D2405F87601E53D2406F8E4F6E6
:1044500030070343E602AF3E228F3F8D408B418AF7
:10446000428943E59620E7FBE53F4420F596E54188
:104470001460132403601A146020147026AD43AF37
:1044800040124CCF801DAC42AD43AF40124C9080E7
:1044900012AD43AF40124CE38009AC42AD43AF4094
:1044A000124C2130081CE53FD394004015AF3F1259
:1044B0004E06759691E59620E7FB439701E5962019
:1044C000E7FB22AD0753E6FD75960E759701E5965D
:1044D00020E7FB759691E59620E7FBAF97EF30E577
:1044E0000B759611759740E59620E7FBEF30E20BD0
:1044F000759611E4F597E59620E7FBBD0303124797
:1045000017BD1203124802BD11031230957B017AC8
:10451000017947E50FFD7C007F2112381D7596114A
:10452000759701E59620E7FB43E602227551007579
:1045300052277553007554B37D84E4FF748D2FF5B5
:1045400082E43401F583E0FE74272FF582E4340021
:10455000F583EEF00FBF04E4E4FF0552E552AA51E3
:104560007002055114F5828A83E0FE0554E554AAD1
:10457000537002055314F5828A83EEF00FBF85DA7B
:104580007E007FB38D5C7B02E4FDFC1241F730833B
:10459000FD22753762A9377A007B007D08E4FF129F
:1045A00047BB759611759740E59620E7FBE53724E4
:1045B00002F8E6FC08E6FAECFFEAFEE5372402F82A
:1045C000A60608A607E5372404F8E6FC08E6FAEC98
:1045D000FFEAFEE5372404F8A60608A607E5372417
:1045E00006F8E6FC08E6FAECFFEAFEE5372406F8F2
:1045F000A60608A60722A3F0A3E544F0A3E545F02C
:10460000E4A3F075510175528D7553007554B39044
:10461000018CE0FD6042D3943E503DE4FFEFC39D2A
:1046200050250552E552AA517002055114F5828AAF
:1046300083E0FE0554E554AA537002055314F58235
:104640008A83EEF00F80D67E007FB38D5C7B02E420
:10465000FDFC1241F73083FD227538FF7864E6FED9
:1046600008E6FFC39480EE9400504D7869E6184642
:1046700070467862E6541F703F7867E618467038D7
:104680007860E6B4030BEF4E60197F041249CA80CC
:10469000127860E6B4040F7865E6184670057F036B
:1046A0001249CAE4F538E538700EF5967865E644A7
:1046B00080F597E59620E7FBAF3822900019E024BB
:1046C00027F582E43400AF82F5398F3A753B0175E6
:1046D0003C499001477403F090000EE0900148F0CF
:1046E000E4FF90000EE0FEEFC39E5025053AE53A48
:1046F000AC397002053914F5828C83E0FD053CE588
:104700003CAA3B7002053B14F5828A83EDF00F80D2
:10471000D1EE2402F50F22900019E02427F582E45F
:104720003400AF82F5238F24752501752649900149
:10473000477403F090000EE0900148F0E4FF900011
:104740000EE0FEEFC39E50250524E524AC23700245
:10475000052314F5828C83E0FE0526E526AC257042
:1047600002052514F5828C83EEF00F80D1750F4081
:1047700022124C3890018CE0124BA190018BE0602A
:1047800034E4FDFC90018BE024FEFFE434FFFEC323
:10479000ED9FEE6480F8EC6480985019124BAE7473
:1047A0008E2DF58274013CF583E0FF124ACE0DBDDB
:1047B00000010C80CF124C4E024D4D8F398D3A8B3B
:1047C0003B8A3C893DE53AD394004035E59620E7A5
:1047D000FBE53944E0F596E53B14601124036018CD
:1047E00024FE701DAD3DAB39AF3A024B84AC3CADFD
:1047F0003DAB39AF3A024B08AD3DAB39AF3A124B46
:104800004822752301752489752501752647E4FF23
:104810000524E524AC237002052314F5828C83E083
:10482000FE0526E526AC257002052514F5828C834D
:10483000EEF074892FF582E43401F583E4F00FBFC4
:1048400040CE750F40227866E6FE08E67DFFC394F1
:1048500001EE9400502B7869E664011846702278C6
:1048600065E61846701B7862E6B481157860E6B498
:10487000060F7BFF7A4F796C7D017C00124B67E459
:10488000FDAF05227870760178777606787E760619
:1048900075960F75978FE59620E7FB7596017597CE
:1048A00001E59620E7FB75960B75970FE59620E7D7
:1048B000FBE5C9A2E650047F0380027F011249CACA
:1048C00022752701E4F528F529F52AF52BF52C1298
:1048D00048FD1232B7E52C70FC124D0A052BE52B72
:1048E0007002052AC3941EE52A940040E8E4F52AE4
:1048F000F52B122CCC123998752C0180D885BF2D40
:10490000122003124E89124D79124D93124D8612C8
:104910004E53124E8D124E91124E5D124D2D124D70
:10492000A0124CBB124D3D124E70124E67852DBF2A
:1049300022124E06759611759708E59620E7FB75CD
:104940009691E59620E7FBE59720E3F375961175C0
:104950009708E59620E7FB759691E59620E7FBE53D
:104960009720E3F322124E06759614759710E5967C
:1049700020E7FB759694E59620E7FBE59720E4F3A6
:10498000759614759710E59620E7FB759694E59655
:1049900020E7FBE59720E4F3227FFF7867E6FE78C7
:1049A00065E6FDEEC3940150207860E6B4061A78FF
:1049B00069E618467013ED70107862E6541FFEBE6B
:1049C0000107C206124A52E4FF228F397860E6F5E9
:1049D0003AC394054009E53994055003124AE7E5C6
:1049E00039B405047861A63A7860A639E53A6539A4
:1049F0006007AD39AF3A124BD822443A5C776F72F8
:104A00006B5C4B4F414C412D3030315C6C69625CCA
:104A100065666D385F7573625C7372635C65666D45
:104A2000385F757362642E6300A2AF9207C2AF75E0
:104A3000FFA075EF028F828E8375B7A575B7F1431E
:104A40008F0175FFA075EF02EDF0538FFEA2079264
:104A5000AF2230060878777601787E7601D207D2C9
:104A600008C2097D407C007F01124170C207D20854
:104A7000C2097D407C007F01024170AC0775BF0F09
:104A8000124C64AF04124A8AAF058FC2C2C0E4FF61
:104A9000FE20C00B0FBF00010EBE27F5BF10F2A213
:104AA000C1B322AD07ED4480F596E59620E7FBAF54
:104AB00097EF7F00FEED144480F596E59620E7FB26
:104AC000AD97ED420722124ACE124BAEAF058FC210
:104AD000C2C0E4FFFE20C00B0FBF00010EBE27F5D1
:104AE000BF10F2A2C1B322E5E6A2E1920653E6FDB1
:104AF000753B01AF3B1243EF053BE53BC3940340DD
:104B0000F230060343E602228D828C831FEF600B96
:104B1000E59620E7FBE597F0A380F1E59620E7FB1B
:104B2000EB4420F596E597F02290018B7401F0A3F9
:104B3000F0A37405F0123CDB900019E02427F58205
:104B4000E43400F583E0FF22A8051FEF600BE59633
:104B500020E7FBE597F20880F1E59620E7FBEB44C0
:104B600020F596E597F2227870E6B40116786BA6E8
:104B70000308A60208A60108A60408A605087602EE
:104B8000E408F622A8051FEF600AE59620E7FBA6D9
:104B9000970880F2E59620E7FBEB4420F596A69770
:104BA00022FF124ACE124BAEA3E0FF124ACEE4FF20
:104BB000FE0FBF00010EEF64194E70F522C2C0E473
:104BC000FFFE20C00B0FBF00010EBE27F5BF10F285
:104BD000A207B392C1AFC2228F3BBD06137B017AFD
:104BE000017989755500755640D2077F02123F3E04
:104BF00022FFE5F0341EFEA2AF9207C2AF8F828E75
:104C000083E493FFA20792AF22D2C5C2C0E4FFFEA5
:104C100020C00B0FBF00010EBE27F5BF10F2C2C5AA
:104C2000228D828C83AE071FEE600CE59620E7FB99
:104C3000E493F597A380EE22D2C5E4FFFE20C00BDB
:104C40000FBF00010EBE27F5BF10F2C2C522D2C4AD
:104C5000C2C0E4FFFE30C40B0FBF00010EBE27F53B
:104C6000BF10F222D2C5E4FFFE20C00B0FBF00012F
:104C70000EBE27F5BF10F2C2C522D2C4C2C0E4FFE7
:104C8000FE30C40B0FBF00010EBE27F5BF10F2228D
:104C90008D828C83AE071FEE600BE59620E7FBE06C
:104CA000F597A380EF22E4FF124E06787076057523
:104CB0009611759760E59620E7FB22E4900025F0B9
:104CC000900024F0F5C175BF0F75C1D0F5BF22A8C3
:104CD00005AE071FEE600BE59620E7FBE6F59708AB
:104CE00080EF22A805AE071FEE600BE59620E7FBDC
:104CF000E2F5970880EF227B807F20124A7BAF038A
:104D0000124A8A124C7AE4F5BF22E4FDFC124D4DA2
:104D10000DBD00010CED64C84C70F222E5A1A2E6C5
:104D20009203E5F8540C24FF9200D2042275B903D3
:104D3000758902758CE3E4F58A4388102275BC08F6
:104D400075BA1F75BB0B43E88075D10822E4FFFEDE
:104D50000FBF00010EEF64FA4E70F522E490018B54
:104D6000F0A304F0A37406F00246037860E6C3944F
:104D70000240057F051249CA227580FFE4F5A4753B
:104D8000F1FF75D4F0227590FF75A50875F2FF75D7
:104D9000D59C2275A0FF75A60375F3F775D6FF2283
:104DA000758DF0758B60438910438840227596910C
:104DB000E59620E7FBE597A2E422759691E596201B
:104DC000E7FBE597A2E222759691E59620E7FBE5E1
:104DD00097A2E122759691E59620E7FBE597A2E57B
:104DE00022759694E59620E7FBE597A2E622759654
:104DF00091E59620E7FBE5971322759694E59620BA
:104E0000E7FBE597132275960E8F97E59620E7FB53
:104E100022759686E59620E7FBAF9722759682E588
:104E20009620E7FBAF9722759684E59620E7FBAFC7
:104E3000972275968EE59620E7FBAF97227596969A
:104E4000E59620E7FBAF97227870760143D7804341
:104E5000D7402275E24075E10675E3022275A2078C
:104E600043A14043F80C227BFF7A4F7962023D75E3
:104E700075E60275A8C8227861E6FF0249CA7F0D6F
:104E8000124AA3228E378F382275DE082275B2C3EC
:104E90002275A902220600FF0901A1018503953FA1
:104EA000750826FF00150009019102953F26FF00B5
:104EB000150009018102C012010002000000403506
:104EC0000800FE0101010203010902290001010499
:104ED00080320904000002030000050921110100CD
:104EE000012222000705810340000207050103405B
:104EF000000204030904011A0353696C69636F6EAD
:104F0000204C6162730001240348494420746F20DF
:104F100053504920446576696365000122033031AE
:104F2000323334353637383941424344454600013F
:104F30001403436F6E666967202331000122034327
:104F40007573746F6D20496E746572666163650078
:104F5000FF4EF2FF4EF6FF4F06FF4F1BFF4F2FFF96
:0E4F60004F3CFF4EB7FF4EC9FF4F50060000FA
:017DF0000092
:027DF20000008F
:087DF800012000F1010155AA70
:00000001FF
