:020000040000FA
:10000000020180022003FFFFFFFFFF022006FFFF27
:10001000FFFFFF022009FFFFFFFFFF02200CFFFF91
:10002000FFFFFF02200FFFFFFFFFFF022012FFFF75
:10003000FFFFFF022015FFFFFFFFFF022018FFFF59
:10004000FFFFFF02201BFFFFFFFFFF02201EFFFF3D
:10005000FFFFFF022021FFFFFFFFFF022024FFFF21
:10006000FFFFFF022027FFFFFFFFFF02202AFFFF05
:10007000FFFFFF02202DFFFFFFFFFF022030FFFFE9
:10008000FFFFFF022033FFFFFFFFFF022036FFFFCD
:10009000FFFFFF022039FFFFFFFFFF02203CFFFFB1
:1000A000FFFFFF02203FFFFFFFFFFFFFFFFFFFFFFC
:1000B000FFFFFFFFFFFFFFFFFFFFFFFFFFFFFFFF50
:1000C000FFFFFFFFFFFFFFFFFFFFFFFFFFFFFFFF40
:1000D000FFFFFFFFFFFFFFFFFFFFFFFFFFFFFFFF30
:1000E000FFFFFFFFFFFFFFFFFFFFFFFFFFFFFFFF20
:1000F000FFFFFFFFFFFFFFFFFFFFFF022060300158
:10010000FFFFFFFFFFFFFFFFFFFFFFFFFFFFFFFFFF
:10011000FFFFFFFFFFFFFFFFFFFFFFFFFFFFFFFFEF
:10012000FFFFFFFFFFFFFFFFFFFFFFFFFFFFFFFFDF
:10013000FFFFFFFFFFFFFFFFFFFFFFFFFFFFFFFFCF
:10014000FFFFFFFFFFFFFFFFFFFFFFFFFFFFFFFFBF
:10015000FFFFFFFFFFFFFFFFFFFFFFFFFFFFFFFFAF
:10016000FFFFFFFFFFFFFFFFFFFFFFFFFFFFFFFF9F
:10017000FFFFFFFFFFFFFFFFFFFFFFFFFFFFFFFF8F
:10018000E4786079109007F0E0F608A3D9FA786077
:100190007910901C10E49386F0B5F064A308D9F5AB
:1001A000E490200093B40258E4907DFE93B455503F
:1001B000E4907DFF93B4AA48022000FFFFFFFFFFF9
:1001C000FFFFFFFFFFFFFFFFFFFFFFFFFFFFFFFF3F
:1001D000FFFFFFFFFFFFFFFFFFFFFFFFFFFFFFFF2F
:1001E000FFFFFFFFFFFFFFFFFFFFFFFFFFFFFFFF1F
:1001F000FFFFFFFFFFFFFFFFFFFFFFFFFFFFFFFF0F
:100200008002300175A800787FE4F6D8FD75812062
:1002100012130E53EFEF0220009000A9EEF0A3EFAF
:10022000F09000B1741EF0A3E4F0A374FDF0900010
:10023000A9E0FEA3E02406F582E43EF583E0FEA3F8
:10024000E0FFD39440EE9400400A7C007D407E00A5
:100250007F4080009000AFEEF0A3EFF09000A9E0A7
:10026000FEA3E0F5828E83E0FFC4135403705BEFBE
:10027000C4131313540130E0519000A9E0FEA3E031
:10028000F5828E83E0541F7041A3E0640660030290
:1002900008D39000A9A3E0F5828E83A3A3E0FEA378
:1002A000E07003EE640F60030208D37BFF7A1A79D3
:1002B000ED9000AFE0FFA3E09000B8CFF0A3EFF027
:1002C000C200E4FF120E6F0208CE9000A9E0FEA368
:1002D000E0F5828E83E0FFC41354036402600302DE
:1002E00008D3EFC4131313540130E00302056B90DD
:1002F00000AFE07002A3E06026121A6A50FB900083
:10030000AFA3E0FD7B017A007906E4FF12144EE40E
:10031000FF121A76759611759740E59620E7FB90C7
:1003200000A9E0FEA3E0F5828E83A3E014607014C0
:1003300070030203B814700302040524F87003026A
:10034000046014700302049924FE70030204EC1488
:100350007003020546240F60030208CEE49000AB50
:10036000F0A3F09000ABE0FEA3E0FF2406F582745A
:10037000003EF583E0FD74462FF58274003EF58360
:10038000EDF09000ACE004F070069000ABE004F0FB
:100390009000ABE07004A3E0644070C70208CE9008
:1003A0000007E0FFEFFE900006E0FDEDFF9000008B
:1003B000EEF0A3EFF00208CE900000E0FEA3E0FF15
:1003C000C3EE941C50030208CE9000AFE0FCA3E003
:1003D000FDEF2DFFEE3CCF24FFCF34FFFED3EF9493
:1003E000FFEE947D40030208CE900000E0FEA3E003
:1003F000FF7B017A0079069000B9ECF0A3EDF012D2
:10040000165A0208CE900000E0FEA3E0FFC3EE946F
:100410001C40369000AFE0FCA3E0FDEF2DFFEE3C6A
:10042000CF24FFCF34FFFED3EF94FFEE947D50191D
:10043000900000E0FEA3E0FF7B017A0079069000C7
:10044000B9ECF0A3EDF012165A9000AFE0FEA3E075
:10045000FF900001E02FF0900000E03EF00208CE97
:10046000900007E0FFC36480949C50030208CED341
:10047000EF648094FD40030208CEEF3395E0EFFE79
:10048000900006E0FD3395E0FCEE4CFEEDFF9000A1
:1004900009E0FD1218700208CE900007E0FF3395C6
:1004A000E0EFFE900006E0FD3395E0FCEE4CFEED43
:1004B000FFC006C007900009E0FF3395E0EFFE9013
:1004C0000008E0FD3395E0FCEE4CFC90000BE0FFF3
:1004D0003395E0EFFE90000AE0FB3395E0FAEE4A38
:1004E000FAEBD007D0061215F40208CE900007E010
:1004F000FFC36480949C50030208CED3EF648094C1
:10050000FD40030208CEEF3395E0EFFE900006E0D9
:10051000FD3395E0FCEE4CFEEDFF12189F900007B6
:10052000E0642060030208CE747CF0E0FF3395E0C5
:10053000EFFE900006E0FD3395E0FCEE4CFEEDFF93
:1005400012189F0208CE9000A9E0FEA3E02404F553
:1005500082E43EF583E0FEA3E0F47003EE640F60F6
:10056000030208CE9000BFF00208CE9000A9E0FE82
:10057000A3E0FFF5828E83E0FDC413131354012022
:10058000E0030208CEA3E014605C1470030207DAF3
:100590001470030207FD14700302087E2404600334
:1005A0000208D3E49000ABF0A3F09000ABE0FEA310
:1005B000E0FF2406F58274003EF583E0FD74462FCB
:1005C000F58274003EF583EDF09000ACE004F0702D
:1005D000069000ABE004F09000ABE07004A3E06490
:1005E0004070C70208B29000ABE4F0A37440F07B07
:1005F000017A0079469000B1E0FCA3E0FD9000B9DB
:10060000E4F0A37440F01216BFE49000ABF0A3F046
:100610009000ABE0FEA3E0FFC3943CEE9400401DCD
:10062000900082E0900002F0900083E0900003F0E0
:10063000900084E0900004F09000858070744A2F50
:10064000F58274003EF583E0F470769000ABE0FE36
:10065000A3E0244CF58274003EF583E0F4706290D0
:100660000046E0F4604E900048E0F460479000AB34
:10067000A3E0FF2446F58274003EF583E09000027B
:10068000F074472FF58274003EF583E0900003F08C
:100690009000ABA3E02448F58274003EF583E0901F
:1006A0000004F074492FF58274003EF583E0900059
:1006B00005F0801EE4900002F0A3F0A3F0A3F08008
:1006C000119000ACE02404F09000ABE03400F002A4
:1006D0000610900000E0FEA3E0900046F0EEA3F0CC
:1006E000E4A3F0A37420F0A374FFF0A3747DF0E4FE
:1006F000A3F0A3741CF0E4A3F0A3F0900002E09038
:100700000050F0900003E0900051F0900004E09061
:100710000052F0900005E0900053F0A37430F0A375
:100720007401F0900000E0641C7002A3E07075900A
:1007300000ABF0A3F09000ABE0FEA3E0FF24F0F5E7
:100740008274073EF583E0FD74562FF58274003EF7
:10075000F583EDF09000ACE004F070069000ABE0A3
:1007600004F09000ABE07004A3E0641070C7E49064
:1007700000ABF0A3F09000ABE0FEA3E0FFC3942039
:10078000EE940040030208B274662FF58274003EB6
:10079000F583E4F09000ACE004F070D99000ABE099
:1007A00004F080D1E49000ABF0A3F09000ABE0FE49
:1007B000A3E0FFC39430EE940040030208B27456E5
:1007C0002FF58274003EF583E4F09000ACE004F075
:1007D00070D99000ABE004F080D17B017A007946BB
:1007E000900000E0FCA3E0FD9000AFE0FFA3E090EC
:1007F00000B9CFF0A3EFF01216BF0208B2900000CC
:10080000E0FEA3E0FFC3EE941C403F9000AFE0FC8D
:10081000A3E0FDEF2DFFEE3CCF24FFCF34FFFED34E
:10082000EF94FFEE947D50227B017A007946900090
:1008300000E0FCA3E0FD9000AFE0FFA3E09000B972
:10084000CFF0A3EFF01216BF8054E49000ABF0A3FA
:10085000F09000ABE0FEA3E0FFC39440EE940050A4
:100860003D74462FF58274003EF58374FFF09000CE
:10087000ACE004F070DB9000ABE004F080D37B01CF
:100880007A007946900000E0FCA3E0FD9000AFE024
:10089000FFA3E09000B9CFF0A3EFF01216BF9000D5
:1008A000AFE0FEA3E0FF900001E02FF0900000E039
:1008B0003EF07B017A0079469000AFE0FFA3E09024
:1008C00000B8CFF0A3EFF0C200E4FF120E6FE49087
:1008D00000B3F09000B3E0FF22E4FDFC9000AE74A2
:1008E000FFF090008AE064806003020A2A90008C86
:1008F000E0FAA3E09000AAF0EAFFE46003020A0134
:10090000EF24FE603A14606F24026003020A019033
:1009100000AAE06003020A0190009AE0F9A3E0FA5D
:10092000A3E09000ABC9F0A3EAF0A3E9F090009A2D
:10093000E0FBA3A3E0F9120B867C00FD020A019004
:1009400000AAE06003020A0190009DE0F9A3E0FA2A
:10095000A3E09000ABC9F0A3EAF0A3E9F090009DFA
:10096000E0FBA3A3E0F9900002120C0AFAE5F0FF05
:10097000EAFCEFFD020A019000A0E0FBA3E0FAA36D
:10098000E0F99000AAE0FF75F003A4F58285F083FA
:10099000120C629000ABEBF0A3EAF0A3E9F0EF7069
:1009A0000CFC7D04900092E05480F0805490008E06
:1009B000E0FEA3E0FF4E600AEF64097003EE6404FA
:1009C000703F900087E0FF9000AAE0C39F5032A3E1
:1009D000E0FBA3E0FAA3E0F9900001120B9F7C007A
:1009E000FD120B86547FFF900092E054804FFFF081
:1009F0009000ACE475F001120BDEEF4480900092A1
:100A0000F0ED4C6025900090E0FEA3E0FFC39DEE6A
:100A10009C5004AC06AD079000ABE0FBA3E0FAA34A
:100A2000E0F91218F8E49000AEF09000AEE0FF227A
:100A3000900099E0139200900096E0FEA3E0FFC3BF
:100A40009440EE940040047F4080009000A9EFF0B5
:100A5000900096E0FEA3E0FFD39440EE9400500493
:100A60007F4080009000ACEFF09000A9E0A3F090F0
:100A70000092E0FF547F64017077EF30E72AA3E033
:100A8000FBA3E0FAA3E0F9C2017D02E4FF1211BB6F
:100A9000900094E475F002120BDE9000A9E024FEB1
:100AA000F0900092E0547FF0E49000ABF09000A949
:100AB000E0C313FF9000ABE0C39F505A900093E057
:100AC000FBA3E0FAA3E0F9C2017D01E4FF1211BB30
:100AD000900094E475F001120BDE7BFF7A1B799095
:100AE000C2017D01E4FF1211BB9000ABE004F08075
:100AF000BC9000A9E0FD900093E0FBA3E0FAA3E026
:100B0000F9C201E4FF1211BB9000A9E0FF9000942C
:100B1000E48FF0120BDE900099E054FBF09000AAF5
:100B2000E0FFC3900097E09FFF900096E09400FEE6
:100B3000F0A3EFF04E70249000ACE06440601C75B0
:100B4000961175970AE59620E7FB9000987401F0DE
:100B5000E4900092F0900099F0800B7596117597D3
:100B600002E59620E7FB30001C9000AAE0FB7A002B
:100B7000900096E0FFA3E09000B1CFF0A3EFF0E487
:100B8000FDFF121A1522BB010689828A83E02250DA
:100B900002E722BBFE02E32289828A83E49322BB1E
:100BA000010CE58229F582E5833AF583E0225006BF
:100BB000E92582F8E622BBFE06E92582F8E222E575
:100BC0008229F582E5833AF583E49322BB01068905
:100BD000828A83F0225002F722BBFE01F322C5F085
:100BE000F8A3E028F0C5F0F8E582158270021583BD
:100BF000E038F022A3F8E0C5F025F0F0E582158298
:100C000070021583E0C838F0E822BB0110E58229A4
:100C1000F582E5833AF583E0F5F0A3E0225009E997
:100C20002582F886F008E622BBFE0AE92582F8E272
:100C3000F5F008E222E5832AF583E993F5F0A3E9CC
:100C40009322BB010789828A83020C9B5005E9F835
:100C5000020C92BBFE05E9F8020CA489828A830289
:100C60000CADBB010DE58229F582E5833AF58302DF
:100C70000C9B5007E92582F8020C92BBFE07E92580
:100C800082F8020CA4E58229F582E5833AF5830215
:100C90000CADE6FB08E6FA08E6F922E0FBA3E0FA71
:100CA000A3E0F922E2FB08E2FA08E2F922E493FB6E
:100CB000740193FA740293F9229000AA74FFF090E1
:100CC000008CE0FCA3E0FDEC6003020DA790008A1D
:100CD000E0541F6003020DA7900090E07002A3E0B3
:100CE0006003020DA790008EE07002A3E060030293
:100CF0000DA7900088E064047057ED4C60209000D0
:100D00009DE0FBA3E0FAA3E0F9900005120B9FFF22
:100D100090008CE07003A3E06F6003020DA79000C9
:100D20008CA3E0900086F090009DE0FBA3E0FAA386
:100D3000E0F9900005120B9FFF90008CE0B4000FCB
:100D4000A3E0B5070AD200121AC87F0612183F8026
:100D500051900088E06406704E90008CE0FEA3E0A5
:100D6000FF4E601C90009DE0FBA3E0FAA3E0F99029
:100D70000005120B9FFD7C00EFB5052BECB5062797
:100D800090008CA3E0900086F090008CE07002A3AD
:100D9000E0700A7F0412183F1219778005C2001212
:100DA0001AC8E49000AAF09000AAE0FF229000A6E2
:100DB000EBF0A3EAF0A3E9F053E6FDE4FF74862F1D
:100DC000F582E43400F583E4F00FEFB41DEF9000FA
:100DD000A6E0FBA3E0FAA3E0F9120C4290009AEB24
:100DE000F0A3EAF0A3E9F09000A6E0FBA3E0FAA3E9
:100DF000E0F9900003120C6290009DEBF0A3EAF082
:100E0000A3E9F09000A6E0FBA3E0FAA3E0F99000CC
:100E100006120C629000A0EBF0A3EAF0A3E9F090B8
:100E200000A6E0FBA3E0FAA3E0F9900009120B9FF3
:100E3000900087F053A98F43D720759601759708C6
:100E4000E59620E7FB75960B75970FE59620E7FB77
:100E5000E5C9A2E690008850057403F08003740190
:100E6000F0759601759701E59620E7FB7F002290CB
:100E700000B5EBF0A3EAF0A3E9F09000B4EFF06066
:100E80001280007BFF7A1779737D7E7C02121AC66E
:100E90007FFC229000B4E0FE600B900088E06406C6
:100EA00060037FF722EE75F007A42493F9740035F0
:100EB000F0FEAF01F583EF2405F582E43583F58379
:100EC000E0FD64016009ED7FFEB405027FFB229026
:100ED00000B5E0F9A3E0FAA3E08F828E83C9F0A306
:100EE000EAF0A3E9F09000B8E0FDA3E08F828E83E2
:100EF000A3A3A3CDF0A3EDF0EF2405F582E43EF526
:100F0000837402F0A200E4335401FDEF2406F5825D
:100F1000E43EF583E054FE4DF09000B4E07007909D
:100F20000099E04404F07F0022E4F5BFF5A8F5E65F
:100F3000F5E753B2FC75A902F5D9F5D8F5DAF5E174
:100F400075E240F5E3121ABF75F1FF75F2FF75F314
:100F5000FF75F4FFE4F5A4F5A5F5A6F5A77580FFE8
:100F60007590FF75A0FF75B0FF75D4FF75D5FF753F
:100F7000D6FF75DFFF9000A4F0A3F09000A5E00479
:100F8000F070069000A4E004F09000A4E0B4FFEB41
:100F9000A3E0B4FEE67BFF7A1B7986120DAD121A30
:100FA0005D9000BF7401F09000BFE06005121AC3AD
:100FB00080F5E49000A4F0A3F0121AC39000A5E01D
:100FC00004F070069000A4E004F0C39000A4E09444
:100FD0000140E6121ABF75EF107F0022E4FF121ADB
:100FE00076121A434005121A36501F759611E4F511
:100FF00097E59620E7FB759611759780E59620E7B3
:10100000FB9000987401F0E4A3F0121A6A5061900A
:101010000099E0FF30E3028054900098E064017092
:1010200048900092F01211217E007F8A120219BFAF
:10103000FD1590008AE0FFC4135403700512124D91
:10104000802E1219AA802990008AE020E7229000C1
:1010500098E06403601A900090E07002A3E06010D2
:10106000900099E04408F08007900099E04402F075
:10107000900098E0B40208121A504003120A30227D
:101080009000AA74FFF0900090E07004A3E0640266
:10109000600302111B90008CE07002A3E0707C9052
:1010A000008AE0FF30E774900088E0FEC3940440BB
:1010B0006AE49000BDF0A3F0EF541F14601D1460AB
:1010C000252402704490008EE07002A3E0703A90F4
:1010D00000BDE04401F0A3E0F0801CC390008EE06E
:1010E00094005025801190008EE0FCA3E0FD547F19
:1010F0004C700BEEB40407E49000AAF0800B900053
:1011000088E0B406047E00AF059000AAE0700C7B76
:10111000017A0079BD7D02FC1218F89000AAE0FF68
:10112000227E007F8A9000A9EEF0A3EFF0AA06F9D4
:101130007B017D08E4FF12144E759611759740E50A
:101140009620E7FB9000A9E0FEA3E0F5828E83A342
:10115000A3E0FCA3E0FAECFFEAFE9000A9E0FCA308
:10116000E0FDF5828C83A3A3EEF0A3EFF0ED240461
:10117000F582E43CF583E0FCA3E0FAECFFEAFE90A4
:1011800000A9E0FCA3E0FD2404F582E43CF583EE35
:10119000F0A3EFF0ED2406F582E43CF583E0FCA338
:1011A000E0FAECFFEAFE9000A9E0FCA3E02406F5DB
:1011B00082E43CF583EEF0A3EFF0229000ADEFF077
:1011C000A3EDF0A3EBF0A3EAF0A3E9F0E59620E7A6
:1011D000FB9000ADE04420F5969000AFE01460195C
:1011E000240360281460341470429000AEE0FFA322
:1011F000A3A3E0FD1219ED80339000AEE0FFA3A39E
:10120000E0FAA3E0AC02FD1219D780209000AEE016
:10121000FFA3A3A3E0FD121A0180119000AEE0FF2E
:10122000A3A3E0FAA3E0AC02FD12199330011D90D4
:1012300000ADE0FFD394004013121A76759691E545
:101240009620E7FB439701E59620E7FB22E4900018
:10125000A9F090008BE0B40C00505D901262F82869
:10126000287302128602128B0212B8021290021226
:10127000B802129502129A0212B802129F0212A428
:101280000212A90212AE12108080261215268021A9
:1012900012158D801C1213D380171208D9801212D8
:1012A000171F800D120CB980081217C68003121880
:1012B0000A9000A9EFF080069000A974FFF0E4FF07
:1012C000121A769000A9E0B4FF031219AA9000A99F
:1012D000E0FF22020F29E493A3F8E493A34003F66E
:1012E0008001F208DFF48029E493A3F85407240C6A
:1012F000C8C333C4540F4420C8834004F45680014B
:1013000046F6DFE4800B0102040810204080901AAA
:10131000ADE47E019360BCA3FF543F30E509541F48
:10132000FEE493A360010ECF54C025E060A840B84E
:10133000E493A3FAE493A3F8E493A3C8C582C8CACC
:10134000C583CAF0A3C8C582C8CAC583CADFE9DE9F
:10135000E780BE121A819000A6EFF0121A8C90005E
:10136000A7EFF0121A979000A6E07007A3E07003B1
:10137000EF605F121AA29000A8EFF09000A6E0FCC8
:1013800030E322900099E0FE30E108900098E0649C
:1013900003600BEE30E20E900098E0B4020790007C
:1013A000A7E04401F0EC30E2031218CE9000A6E072
:1013B00030E103121AB79000A6E030E003121A27BA
:1013C0009000A7E030E003120FDC9000A8E0FF12CD
:1013D0001A76229000AA74FFF090008CE0FEA3E041
:1013E000FFC39480EE9400505F900090E07002A3E1
:1013F000E0705590008AE0541F704D90008EE070B0
:1014000002A3E07043900088E0B4030BEF4E601D30
:101410007F0412183F8016900088E0B404149000F6
:101420008CE07002A3E070057F0312183FE4900087
:10143000AAF09000AAE07010F59690008CA3E0440A
:1014400080F597E59620E7FB9000AAE0FF22900048
:10145000B4EFF09000B6EBF0A3EAF0A3E9F090004F
:10146000B5EDF0D394004054E59620E7FB9000B42E
:10147000E0FE44E0F5969000B6E0146017240360A7
:101480002924FE70379000B5E0FFA3A3A3E0FDABD5
:101490000602195A9000B5E0FFA3A3E0FAA3E0AC5E
:1014A00002FD9000B4E0FB02191A9000B5E0FFA322
:1014B000A3A3E0FD9000B4E0FB12193B229000AE24
:1014C000EFF0E4A3F0EF60099000AEE0C3940140B8
:1014D000157BFF7A1779737D4A7C00121AC690003B
:1014E000AF74FCF0803A9000AEE075F007A424934E
:1014F000F9740035F0FEAF01F583EF2405F582E4C1
:101500003583F583E064016017EF2405F582E43E3E
:10151000F5837401F0EF2406F582E43EF583E4F0F0
:101520009000AFE0FF229000AA74FFF0900090E0DE
:101530007002A3E0705190008AE0541F24FE7047AF
:1015400090008CE07002A3E0703D90008EE0FEA35E
:10155000E0547FFF4E7010900088E0C39404400771
:10156000E49000AAF08020C3EF9401EE940050179D
:10157000900088E0B40610E49000AAF090008EA3DA
:10158000E0547FFF121A769000AAE0FF229000AA92
:1015900074FFF0900090E07002A3E0705190008A18
:1015A000E0541F24FE704790008EE0FEA3E0547FBD
:1015B000FF4E7010900088E0C394044007E4900050
:1015C000AAF0802AC3EF9401EE9400502190008C81
:1015D000E07002A3E07017900088E0B40610E49079
:1015E00000AAF090008EA3E0547FFF121A769000BC
:1015F000AAE0FF229000B4EEF0A3EFF0A3ECF0A37A
:10160000EDF0A3EAF0A3EBF0E4A3F0A3F09000B8B0
:10161000E0FEA3E0FFA3E0FCA3E0FDC39FEC9E502F
:10162000389000B7E02DFF9000B6E03CFE1219C1E3
:10163000AD079000BAE0FEA3E0FF9000B5E02FFFF9
:101640009000B4E03EFE1218709000BBE004F07011
:10165000BC9000BAE004F080B4229000B6EBF0A396
:10166000EAF0A3E9F09000B4EEF0A3EFF09000BB35
:10167000EEF0A3EFF09000B9E0FEA3E0FF9000B51C
:10168000E02FFD9000B4E03EFC9000BBE0FEA3E044
:10169000FFC39DEE9C50279000B6E0FBA3E475F0DD
:1016A00001120BF4A9F0FA120B86FD1218709000CB
:1016B000BCE004F070BF9000BBE004F080B7229063
:1016C00000B4EBF0A3EAF0A3E9F0A3ECF0A3EDF093
:1016D000E49000BBF0A3F09000B9E0FEA3E0FFA30C
:1016E000E0FCA3E0FDC39FEC9E50339000B8E02DDA
:1016F000FF9000B7E03CFE1219C19000B4E0FBA3DC
:10170000E475F001120BF4A9F0FAEF120BCC900083
:10171000BCE004F070C19000BBE004F080B9227F0F
:10172000FF90008EE07002A3E0704790008CE070A4
:1017300002A3E0703D900090E07004A3E0640170AB
:101740003190008AE0FE30E729541F702590008810
:10175000E0B404087BFF7A1B7990800D900088E04C
:10176000B4060F7B017A0079867D017C001218F89F
:10177000E4FF22433A5C55736572735C73696D6F65
:101780006E5C53696D706C696369747953747564C8
:10179000696F5C76335F776F726B73706163655CE2
:1017A0005553422D424C2D315C6C69625C65666D0F
:1017B000385F7573625C7372635C65666D385F7504
:1017C0007362642E630090008EE0FEA3E0FF7DFF55
:1017D000C3EE94005031A3E07004A3E064017027CD
:1017E00090008CE07002A3E0701D90008AE0B4814C
:1017F00016900088E0B4060F7BFF7A1B79907D017C
:101800007C001218F8E4FDAF05227FFF90008EA344
:10181000E0FE90008CA3E0FDEEC394005020900009
:1018200088E0B40619900090E07002A3E0700FED1C
:10183000700C90008AE0541FFEBE0102E4FF22906B
:1018400000ABEFF0900088E09000ACF0C39405404E
:101850000B9000ABE0940550031219779000ABE0B9
:10186000FFB40506A3E0900089F0900088EFF02215
:10187000A2AF9200C2AF75FFA075EF028E088F096C
:1018800075B7A575B7F1438F0175FFA075EF028598
:101890000982850883EDF0538FFEA20092AF22A249
:1018A000AF9200C2AF75FF8075EF028E088F097589
:1018B000B7A575B7F1438F0375FF8075EF028509F2
:1018C00082850883E4F0538FFCA20092AF2290003F
:1018D000987401F0F596F597E59620E7FB75960B61
:1018E00075970FE59620E7FBE5C9A2E650047F0354
:1018F00080027F0112183F22900098E0B4011A90F4
:101900000093EBF0A3EAF0A3E9F0AF05A3ECF0A39A
:10191000EFF0A37402F0E4A3F0228D828C831FEF1A
:10192000600BE59620E7FBE597F0A380F1E59620B4
:10193000E7FBEB4420F596E597F022A8051FEF6042
:101940000BE59620E7FBE597F20880F1E59620E7A6
:10195000FBEB4420F596E597F222A8051FEF600AFD
:10196000E59620E7FBA6970880F2E59620E7FBEBDB
:101970004420F596A697229000AD7401F09000AD3A
:10198000E0FFC39401500B1214BD9000ADE004F0D1
:1019900080EB228D828C83AE071FEE600CE59620D3
:1019A000E7FBE493F597A380EE22E4FF121A76900A
:1019B00000987405F0759611759760E59620E7FB21
:1019C00022A2AF9200C2AF8E088F098F828E83E46D
:1019D00093FFA20092AF228D828C83AE071FEE6030
:1019E0000BE59620E7FBE0F597A380EF22A805AE74
:1019F000071FEE600BE59620E7FBE6F5970880EF02
:101A000022A805AE071FEE600BE59620E7FBE2F586
:101A1000970880EF229000ADEFF0A3EDF0A3EAF07D
:101A2000A3EBF0E4FEFF22900088E0C3940240059F
:101A30007F0512183F22759691E59620E7FBE59702
:101A4000A2E422759691E59620E7FBE597A2E222B3
:101A5000759691E59620E7FBE597A2E12290009824
:101A60007401F043D78043D74022759691E59620C4
:101A7000E7FBE597132275960E8F97E59620E7FB17
:101A800022759686E59620E7FBAF9722759682E54C
:101A90009620E7FBAF9722759684E59620E7FBAF8B
:101AA000972275968EE59620E7FBAF9722420000BD
:101AB00000004100BF0000900089E0FF02183F5382
:101AC000D77F2202135380FE22120101021100006F
:101AD00040350871FF3001010203010902120001C3
:101AE00001048032090400000011000000050F19F4
:101AF00000011410040005A04F5A082149BBB2E3AD
:101B00000E74FF0894AD04030904012203416374B9
:101B1000696F6E2053746172205465636800011808
:101B200003555342205570677261646500010403D8
:101B30003000011803555342205570677261646587
:101B400000013C03687474703A2F2F7777772E6109
:101B50006374696F6E737461722E636F6D2E747728
:101B60002F00011803555342205570677261646558
:101B700000FF1B06FF1B0AFF1B1EFF1B2DFF1B3256
:101B8000FF1B41FF1B62FF1AC9FF1ADBFF1B710716
:021B9000000053
:020000040000FA
:10200000022066E4F5BF53D9BFF5D9220243457FCC
:1020100017124B1622023E5880FE220239CF7FFF54
:102020007867E61846703D18E6184670377869E616
:1020300064011846702E7862E6FE30E727541F7060
:10204000237860E6B404087BFF7A4F79CC800C7863
:1020500060E6B4060F7B007A00795E7D017C001299
:102060004BDAE4FF222253D9BF787FE4F6D8FD751E
:1020700081880243008A3C8B3DED6003022CC8EF4F
:10208000600764026003022CB590018AE0122F35CC
:1020900020B50020B8012124022BCA0F215611219E
:1020A000911223D6132738142760152996162A244F
:1020B0001700002CAF02298B7FFB7E7D124C6A90AB
:1020C000018BEFF07FFA124C6A90018CEFF07FFDEC
:1020D000124C6A90018DEFF07FFC124C6A90018ED9
:1020E000EFF07FF9124C6A90018FEFF07FF8124CFD
:1020F0006A900190EFF0A374FFF0A3F0A3F0A3F0B7
:102100007FF0124C6A900195EFF0A374FFF07FF31B
:10211000124C6A900197EFF07FF2124C6A9001988E
:10212000EF022BC690018BE0FCB41E0CA3E0B48040
:1021300007A3E0FD7F808010ECB41E1190018CE0BD
:10214000B4810AA3E0FD7F817E1E124A1A9000002E
:102150007411F0022CB5E5F820E00943A40D43F812
:1021600001124C21E4F540F54174272541F58274B4
:10217000003540F583E4F00541E541700205406417
:102180003E454070E4123D249000007411F002239B
:10219000CDE5F820E00943A40D43F801124C21904D
:1021A000018DE0640260030222D190018CE024FCE6
:1021B000FF90018BE06F60030222D1F540F541747E
:1021C000892541F58274013540F583E0FF74482587
:1021D00041F8A6070541E541700205406408454005
:1021E00070DDE4F540F54174892541F582740135CF
:1021F00040F583E0FF74792541F58274033540F59D
:1022000083EFF00541E541700205406440454070B0
:10221000D6124DBC124B9CEF5403FFBF02F6E4F5FF
:1022200040F54174482541F8E6FF74892541F5825F
:1022300074013540F583EFF00541E541700205403A
:102240006408454070DD12464C124B9CEF540370FD
:10225000F8E54B24FC90018BF0A37404F0A314F078
:10226000A3E54DF0A3E54EF0A3E54FF0123D24E4C5
:10227000F55090018BE0FFE550C39F5023742B2550
:1022800050F582E43400F583E0FF74812550F58237
:10229000E43403F583E06F6003754AFE055080D295
:1022A000E4F540F54174482541F8E6FF748925417D
:1022B000F58274013540F583EFF00541E541700288
:1022C00005406408454070DD9000007411F0022361
:1022D000CD90018DE0B4021290018CE0FF90018B53
:1022E000E0B5070674FDF00223C790018BE0700390
:1022F0000223C490018DE0642060030223C4F540F2
:10230000F54174892541F58274013540F583E0FF7C
:1023100074482541F8A6070541E54170020540646F
:1023200008454070DD90018BE0FFD3941E40087596
:10233000420075431E80057542008F4390018EE078
:10234000F544A3E0F545E4F540F541C3E541954387
:10235000E54095425044124DBC124B9CEF5403FF94
:10236000BF02F690018AE549F0A3E54AF0A3E54BE8
:10237000F0E54C12463FE545B4F0070544E4F54569
:10238000800674102545F545124B9CEF540370F8F8
:102390000541E54170B5054080B1E4F540F5417473
:1023A000482541F8E6FF74892541F58274013540DE
:1023B000F583EFF00541E5417002054064084540B2
:1023C00070DD800312464C9000007412F053A4F2AA
:1023D00053F8FE022CB590018BE0FD64907071A360
:1023E000E0B4010EE5F830E00953F8FE53A4F21210
:1023F0004C2190018CE0FF700CA3E590F090000060
:102400007412F08048E5A054F064407029EF64082D
:10241000702490018DE0FF70054390088007EFB4B1
:1024200008035390F7124C2190018CE05590A3F0D3
:10243000E06408F0801790018CE05590FFA3E06FF6
:102440006290124C2190018CE05590A3F002298BF0
:10245000ED6480702590018CE0FF7006A3E580029A
:1024600026D9E5805FFF90018DE06F6280124C21DC
:1024700090018CE05580A30226D990018BE0FD6489
:10248000F17022A3E0FF7005A3E5F18015E5F15F8F
:10249000FF90018DE06F62F1124C2190018CE055AC
:1024A000F1A30226D9ED64A4702490018CE0FF70A2
:1024B00005A3E5A48015E5A45FFF90018DE06F62A0
:1024C000A4124C2190018CE055A4A30226D99001BE
:1024D0008BE0FD64A07022A3E0FF7005A3E5A0805F
:1024E00015E5A05FFF90018DE06F62A0124C219076
:1024F000018CE055A0A30226D9ED64F3702490016D
:102500008CE0FF7005A3E5F38015E5F35FFF900114
:102510008DE06F62F3124C2190018CE055F3A30221
:1025200026D990018BE0FD64A67022A3E0FF700520
:10253000A3E5A68015E5A65FFF90018DE06F62A67A
:10254000124C2190018CE055A6A30226D9ED64BC63
:10255000702490018CE0FF7005A3E5BC8015E5BCFC
:102560005FFF90018DE06F62BC124C2190018CE006
:1025700055BCA30226D990018BE0FD64BE7022A356
:10258000E0FF7005A3E5BE8015E5BE5FFF90018DFD
:10259000E06F62BE124C2190018CE055BEA3022672
:1025A000D9ED64BD702490018CE0FF7005A3E5BDFA
:1025B0008015E5BD5FFF90018DE06F62BD124C217B
:1025C00090018CE055BDA30226D990018BE0FD64FB
:1025D000C47022A3E0FF7005A3E5C48015E5C45FC5
:1025E000FF90018DE06F62C4124C2190018CE05588
:1025F000C4A30226D9ED64C3702490018CE0FF705F
:1026000005A3E5C38015E5C35FFF90018DE06F6210
:10261000C3124C2190018CE055C3A30226D990012E
:102620008BE0FD64C67022A3E0FF7005A3E5C680C1
:1026300015E5C65FFF90018DE06F62C6124C2190D8
:10264000018CE055C6A30226D9ED64C57023900124
:102650008CE0FF7005A3E5C58015E5C55FFF90011F
:102660008DE06F62C5124C2190018CE055C5A380AE
:102670006890018BE0FD64E87039A3E0FF7003A36C
:10268000802CE5E85FFF90018DE06F62E8124C213D
:1026900090018CE055E8A3F0124C2190018FE5BE2B
:1026A000F0A3E5BDF053E8DF124C2190018EE5E880
:1026B000022A20ED64BB702490018CE0FF7005A31A
:1026C000E5BB8015E5BB5FFF90018DE06F62BB123B
:1026D0004C2190018CE055BBA3022A2090018BE095
:1026E000FD64BA7022A3E0FF7005A3E5BA8015E58A
:1026F000BA5FFF90018DE06F62BA124C2190018C9D
:10270000E055BAA3022A20ED64D1702490018CE038
:10271000FF7005A3E5D18015E5D15FFF90018DE045
:102720006F62D1124C2190018CE055D1A3022A2076
:1027300090018B74FD022BC6900021E07002A3E093
:102740006003022CB575C1D0124C2190018CE03091
:10275000E0051243C280031247BAE4F5C1022BBE62
:1027600090018BE0FF700302298EA3E06F600302EB
:10277000298EE5F820E00643A40D43F801E4F54076
:10278000F54174892541F58274013540F583E0FFF8
:1027900074482541F8A6070541E5417002054064EB
:1027A00008454070DD90018BE0FFD3941E40087512
:1027B000420075431E80057542008F4390018FE0F3
:1027C000F544A3E0F545E4F540F541C3E541954303
:1027D000E54095425041124DBC124B9CEF5403FF13
:1027E000BF02F6E490018AF0A37404F0A3F0742011
:1027F00012463FE545B4F0070544E4F5458006740C
:10280000102545F545124B9CEF540370F80541E542
:102810004170B8054080B4E54AD3941E4008754223
:102820000075431E8006754200854A43E543AE426B
:102830007805C333CE33CED8F9F5438E42854C4666
:10284000854D47854E44854F45E4F540F541C3E548
:10285000419543E5409542400302296390018C7401
:1028600004F0A314F0A3E546F0A3E547F0E54130FA
:10287000E006A37480F08005E4900190F01240A778
:10288000124B9CEF540370F8E4F550742B2550F56F
:1028900082E43400F583E0FF74F02550F582E434DF
:1028A00001F583EFF00550E550B480DF124DBC1206
:1028B0004B9CEF5403FFBF02F690018D7402F0A30E
:1028C000E544F0A3E545F0E54130E006A37480F06F
:1028D0008005E4900190F0124575124B9CEF540373
:1028E00070F890018C7404F0A314F0A3E544F0A3F5
:1028F000E545F0E54130E006A37480F08005E49002
:102900000190F01240A7124B9CEF540370F8E4F5CD
:1029100050742B2550F582E43400F583E0FF74F009
:102920002550F582E43401F583E06F6003754AFEBB
:102930000550E550B480DAE54130E01CE545B4FFD0
:10294000070544E4F54580020545E547B4FF070562
:1029500046E4F547800205470541E5417002054020
:1029600002284EE4F540F54174482541F8E6FF742D
:10297000892541F58274013540F583EFF00541E585
:1029800041700205406408454070DD022BBE900195
:102990008B74FD022BC6E5F830E00653A4F253F821
:1029A000FEE4F5C1E5A054F0FFBF30065390FB02F2
:1029B0002CB5E5A054F0FFBF90065390DF022CB574
:1029C00090018CE0FD900188F090018DE0FC900179
:1029D000C9F090018EE07F00FE90001EF0A3EFF0A2
:1029E000C394FAEE9400500990001EE4F0A374FA28
:1029F000F090018FE07F00FE900021F0A3EFF0C384
:102A000094FAEE94005009900021E4F0A374FAF0D7
:102A1000E5805D6C6280124C2190018CE05580A3B2
:102A2000F0022CA790018BE0FF7003022BC1A3E002
:102A30006F6003022BC1E5F820E00643A40D43F8C4
:102A400001E4F540F54174892541F5827401354072
:102A5000F583E0FF74482541F8A6070541E541707C
:102A60000205406408454070DD90018BE0FFD3947F
:102A70001E400875420075431E80057542008F4355
:102A8000E54AD3941E400875420075431E800675C2
:102A90004200854A43E543AE427805C333CE33CE88
:102AA000D8F9F5438E42854C46854D47854E448581
:102AB0004F45E4F540F541C3E5419543E540954276
:102AC0004003022B9690018C7404F0A314F0A3E54C
:102AD00046F0A3E547F0E54130E006A37480F080BE
:102AE00005E4900190F01240A7124B9CEF54037044
:102AF000F8E4F550742B2550F582E43400F583E0BA
:102B0000FF74F02550F582E43401F583EFF00550B1
:102B1000E550B480DF90018C7404F0A314F0A3E5B9
:102B200044F0A3E545F0E54130E006A37480F08071
:102B300005E4900190F01240A7124B9CEF540370F3
:102B4000F8E4F550742B2550F582E43400F583E069
:102B5000FF74F02550F582E43401F583E06F6003E3
:102B6000754AFE0550E550B480DAE54130E01CE5D9
:102B700045B4FF070544E4F54580020545E547B443
:102B8000FF070546E4F547800205470541E541702A
:102B9000020540022AB7E4F540F54174482541F8A2
:102BA000E6FF74892541F58274013540F583EFF025
:102BB0000541E541700205406408454070DD022C86
:102BC000A790018B74FDF0022CA790018BE0645557
:102BD0006003022CA1A3E064AA6003022CA17F8100
:102BE0007E1E124C6AAD07EDF46006EDC3940750EB
:102BF000027D07E4F542F543EDFFC3E5439FE5425F
:102C000094005023E4F540F541124DAD0541E541F6
:102C100070020540C394FFE540940040EC0543E595
:102C20004370D5054280D1E4F540F541124DAD0524
:102C300041E54170020540C39441E540940040ECF9
:102C400053D77FE4F540F541124DAD0541E54170A4
:102C5000020540C394FFE540940040ECE4F542F5E2
:102C600043EDFFC3E5439FE54294005023E4F54064
:102C7000F541124DAD0541E54170020540C394E8B0
:102C8000E540940340EC0543E54370D5054280D10F
:102C90007BFF7A0279008B138A148915122F5B80CF
:102CA0001490018B74FDF09000007412F080069077
:102CB000018B74FDF07B017A017989755500755699
:102CC00040D2077F02123F87E4FEFF227B1F7DFF79
:102CD0007F20124B077B307DF87F20124B077B80D3
:102CE0007D8D7F20124B07E4FB7DB3124AF37B807E
:102CF0007DC07F20124B077DD07F52124B077B1087
:102D00007DF97F20124B077B057D3F7F20124B070B
:102D10007B907D077F20124B077B3F7D0C7F20122D
:102D20004B077BF87D1C7F20124B077BD27D1E7FDB
:102D300020124B077B060D7F20124B077B017D2C59
:102D40007F20124B077BC00D7F20124B077B747DC9
:102D50008B7F20124B077BC17D907F20124B077D1C
:102D6000967F20124B077B090D7F20124B077D9D1C
:102D70007F20124B077BA07DA07F20124B077DA2F6
:102D80007F20124B077B100D7F20124B071B7DAD60
:102D90007F20124B077B747DBE7F20124B077BC1C7
:102DA0007DC37F20124B077B2D7DC97F20124B07EF
:102DB0007B0F7DDF7F20124B077B110D7F20124B95
:102DC000077BAA7DE27F20124B077B517DFC7F2091
:102DD000124B077BD57D077F52124B077B397D371E
:102DE0007F52124B077B327D5F7F52124B077B2253
:102DF0007D827F52124B077BCB7D847F52124B0723
:102E00007B727D937F52124B077B300D7F52124BAA
:102E1000077B227DB27F52124B077BC00D7F52127F
:102E20004B077BCB0D7F52124B077B107DB87F5237
:102E3000124B077B727DCF7F52124B077B657DFA69
:102E40007F20024B07BB010689828A83E022500261
:102E5000E722BBFE02E32289828A83E49322BB013C
:102E60000CE58229F582E5833AF583E0225006E9F4
:102E70002582F8E622BBFE06E92582F8E222E582F9
:102E800029F582E5833AF583E49322F8BB010DE549
:102E90008229F582E5833AF583E8F0225006E92598
:102EA00082C8F622BBFE05E92582C8F222BB0110CA
:102EB000E58229F582E5833AF583E0F5F0A3E02287
:102EC0005009E92582F886F008E622BBFE0AE925CA
:102ED00082F8E2F5F008E222E5832AF583E993F52A
:102EE000F0A3E99322BB010789828A83022F6A50EB
:102EF00005E9F8022F61BBFE05E9F8022F7389820C
:102F00008A83022F7CBB010DE58229F582E5833A95
:102F1000F583022F6A5007E92582F8022F61BBFE74
:102F200007E92582F8022F73E58229F582E5833AC5
:102F3000F583022F7CD083D082F8E4937012740161
:102F400093700DA3A393F8740193F5828883E473BF
:102F50007402936860EFA3A3A380DF8A838982E46D
:102F600073E6FB08E6FA08E6F922E0FBA3E0FAA321
:102F7000E0F922E2FB08E2FA08E2F922E493FB74AA
:102F80000193FA740293F9228F377538FDA807E68A
:102F9000FFC41354036003023047EFC413131354E8
:102FA0000120E003023047E6541F64016003023051
:102FB00047E804F8E624FA600302309FE53724026C
:102FC000F9E764227038E5372404F8E6FE08E66085
:102FD0000302309FEE600302309F7BFF7A4E79F54B
:102FE000E5372406F8E6FE08E6FFC374229FE49E58
:102FF000500A7C007D227E007F2280458043E53799
:103000002402F9E76421600302309FE5372404F8C5
:10301000E6FE08E6600302309FEE600302309F7B0D
:10302000FF7A4F793BE5372406F8E6FE08E6FFC352
:1030300074099FE49E500A7C007D097E007F098010
:10304000008E3D8F3E8039A837E6FFC413540364D9
:1030500001704CEF541F64017045E804F8E624F752
:10306000602724087039E5372402F808E664037005
:103070002E1247047B017A017947753D00753E4069
:10308000C206E4FF12385180137B017A01798975F9
:103090005500755640D207E4FF123F87E4F538AF7C
:1030A0003822900019E02427F582E43400AD82F53F
:1030B000238D2475250175264C9001477403F090EB
:1030C000018AE0900148F090018BE0900149F09076
:1030D000018CE090014AF090018DE0FE90014BF0F0
:1030E00064026008EE6403600302317090018EE0B8
:1030F000FE0526E526AC257002052514F5828C8395
:10310000EEF090018FE0FE0526E526AC2570020565
:103110002514F5828C83EEF0900190E0FE0526E503
:1031200026AC257002052514F5828C83EEF0E4FFB1
:103130000524E524AC237002052314F5828C83E07A
:10314000FE0526E526AC257002052514F5828C8344
:10315000EEF074272FF582E43400F583E4F07489EF
:103160002FF582E43401F583E4F00FBF38C28040CC
:10317000E4FF0524E524AC237002052314F5828CBA
:1031800083E0FE0526E526AC257002052514F582B0
:103190008C83EEF074272FF582E43400F583E4F09D
:1031A00074892FF582E43401F583E4F00FBF3BC24C
:1031B000750F4022E4FDFC753CFF7862E664806098
:1031C000030232C17864E6FE08E6F538EEFFE460FB
:1031D0000302329FEF24FE602A14604E2402600333
:1031E00002329FE538600302329F7880860308E64A
:1031F000FA08E6F98B398A3AF53B122E457C00FD38
:1032000002329FE538600302329F7883860308E626
:10321000FA08E6F98B398A3AF53B900002122EAD96
:10322000FAE5F0FFEAFCEFFD80757886860308E694
:10323000FA08E6F975F003E538A4F58285F0831203
:103240002F058B398A3A893BE538700BFC7D047871
:103250006AE65480F680487866E6FE08E6FF4E602F
:103260000AEF64097003EE64047034E538C3785FD4
:1032700096502CAB39AA3AA93B900001122E5E7CE5
:1032800000FD122E45547FFF786AE654804FFFF60A
:103290007401253BF53BE4353AF53AEF4480F6ED11
:1032A0004C601E7868E6FE08E6FFD3ED9FEC9E407A
:1032B00004AC06AD07AB39AA3AA93B124BDAE4F5E8
:1032C0003CAF3C227871E6139206786EE6FE08E683
:1032D000FFC39440EE940040047F4080008F378508
:1032E0003738786AE6FF547F64017068EF30E7266C
:1032F00008860308E6FA08E6F9C2087D02E4FF1230
:1033000044A2786D740226F618E436F615371537A0
:10331000786AE6547FF6E4F539E537C313FFE539FB
:10332000C39F504D786B860308E6FA08E6F9C20899
:103330007D01E4FF1244A2786D740126F618E4368C
:10334000F67BFF7A4F79CCC2087D01E4FF1244A2DC
:10335000053980C5786B860308E6FA08E6F9C208E5
:10336000AD37E4FF1244A2786DE53726F618E4364F
:10337000F67871E654FBF6C3786FE69538FF18E6E9
:103380009400FEF608EFF64E701EE53864406018B3
:1033900075961175970AE59620E7FB78707601E43B
:1033A000786AF67871F6800B759611759702E59636
:1033B00020E7FB300614E538FB7A00786EE6F53E30
:1033C00008E6F53FE4FDFF122075227B107A10E439
:1033D000F9FDFCEDAE047802C333CE33CED8F92428
:1033E00000FFEE341EFE124C6ABFFF04AB05800BDB
:1033F0000DBD00010CED64104C70D8E4F9EBC394E2
:1034000010503FEBC394014039EB14FA75F004A45B
:103410002400124C64EF64F17028EA75F004A424CF
:1034200001124C64EF701BEA75F004A42402124CE4
:1034300064BF010EEA75F004A42403124C64BF02B9
:103440000109E960030234CCEB75F004A42400FF09
:10345000E5F0341EFE7DF1124A1AEB75F004A42447
:1034600001FFE5F0341EFEE4FD124A1AEB75F0048C
:10347000A42402124A13EB75F004A42403124A1385
:10348000EB7010EB75F004A42440FFE5F0341EFE51
:103490001D8036EB24FFFFE434FFFEEF7802C333D8
:1034A000CE33CED8F92440FFEE341EFE124C6AAA69
:1034B000070AEAC394FE40027AFEEB75F004A424E6
:1034C00040FFE5F0341EFEAD02124A1A22604001B0
:1034D00047000000000000000000000000000000A5
:1034E00000000000000000000000000000000000DC
:1034F00000000000000000000000000000000000CC
:1035000000000000000000000000000000000000BB
:103510000060400189000000000000000000000081
:10352000000000000000000000000000000000009B
:10353000000000000000000000000000000000008B
:10354000000000000000000000000000000000007B
:1035500000000000004100190041000E0041000081
:103560000041001AFE010F00410001804101468028
:103570004101870041001B0042001C006442001E04
:1035800000004200210000410188004101C90041C2
:103590000026FF410020F04100230F41013F00427F
:1035A0000140000042014200004201440000C1000D
:1035B000C103C104C101C102010800010900010ADF
:1035C00000020D0000020B0000007B017D2C7F201B
:1035D000124B077B047D367F20124B077B2D7DC964
:1035E0007F20124B077BCB7D847F52124B077DB42B
:1035F0007F52124B077BDF7D447F20124B077B9865
:103600007D567F20124B077B100D7F20124B077BCE
:10361000857D5B7F20124B077B800D7F20124B073F
:103620007B897D617F20124B071B7D697F20124BB8
:10363000077BF97D6B7F20124B077BDB7D6E7F2044
:10364000124B077BFF7D727F20124B077B687D74D6
:103650007F20124B077BE57D837F52124B077BC196
:103660007D9D7F52124B077B01E4FD7F8E124B073D
:103670007B050D7F8E124B077B027DC3124AF37BC5
:10368000147D607F8E124B07E4FB7D787F8E124B9A
:10369000077B067DA87F8E124B077BCB7DAA7F8E92
:1036A000124B077B727DB17F8E124B077B230D7F00
:1036B0008E124B077B847D757F20024B07C2067FED
:1036C00001124E66124E415015759694E59620E70C
:1036D000FB5397BFE59620E70302378A80F6124E28
:1036E0005A400302378A12200F8F37787EE6640330
:1036F000600A08E64402F67538F9806DC3787DE605
:10370000953718E69400500E787E760108E644025C
:10371000F67538F280537879860308E6FA08E6F9F8
:10372000AD377F01124804787FE654FDF6AF377E4F
:1037300000C3787DE69FF618E69EF618EF26F61889
:10374000EE36F6787DE618466006E537644060069A
:10375000787E7601D206E4F538759694E59620E7F2
:10376000FB5397FEE59620E7FB787FE630E01B30C1
:10377000060354FEF6E537FB7A00787CE6F53E0852
:10378000E6F53FAD387F02122075227538FF786468
:10379000E6FC08E6FDEC600302384E7862E6541F52
:1037A000600302384E7869E61846600302384E1806
:1037B000E61846600302384E7860E664047048ED0F
:1037C0004C60197883860308E6FA08E6F99000054C
:1037D000122E5E786566700218E670727865E6787B
:1037E0005EF67883860308E6FA08E6F9900005128B
:1037F0002E5E786566700218E67050D206124AA2F4
:103800007F06124A4380447860E66406704078641C
:10381000E6FE08E6FF4E60177883860308E6FA089E
:10382000E6F9900005122E5EB50723E4B5061F7871
:1038300065E6785EF67865E61846700A7F04124AF7
:1038400043124B5A8005C206124AA2E4F538AF383B
:10385000228F398B3A8A3B893CE539601514601216
:1038600080007BFF7A4A79737D917C021220187F59
:10387000FC22E539600A7860E6640660037FF7227F
:10388000E53975F007A4246BF9AF01EF2405F8E6DC
:10389000FE64016009EE7FFEB405027FFB22E5E6CF
:1038A000A2E1920753E6FDAA3BA93CA807A63A0865
:1038B000A60208A601EF2403F8A63D08A63EEF24C1
:1038C00005F87602A206E4335401FEEF2406F8E67A
:1038D00054FE4EF6E53914600B04702C7871E64402
:1038E00004F68024D3E53E9440E53D940040047DF9
:1038F000408004AF3EAD077872860308E6FA08E61A
:10390000F9D2087F011244A230070343E6027F0088
:1039100022E59620E7FB8F96EB6024B401398A8379
:103920008982ED1D70067DFFEC60131CE59620E793
:10393000FBE0F5970582E5827002058380E422E9C9
:10394000F8ED1D70067DFFEC600C1CE59620E7FB92
:10395000E6F5970880EB228A838982ED1D70067D4B
:10396000FFEC60141CE59620E7FBE493F5970582D5
:10397000E5827002058380E322EB602E8A838982D0
:10398000ED7004EC60231CE59620E7FB8F964396D0
:10399000C0E59620E7FBE597F0DD04EC600B1C0525
:1039A00082E58270EC058380E822E9F8ED7004EC92
:1039B000601C1CE59620E7FB8F964396C0E5962099
:1039C000E7FBE597F2DD04EC60041C0880EF22C001
:1039D000E0C0F0C083C082C0D075D000C000C0017C
:1039E000C002C003C004C005C006C00785BF327551
:1039F000BF00124E718F33124E7C8F34124E878F60
:103A000035124E928F36E53330E32E124EDE124ED3
:103A1000E47871E6FF30E10618E66403600AEF30EF
:103A2000E2097870E6B40203433401787FE630E1BE
:103A30000818E6B40303433502E53330E2031248C5
:103A4000CDE53330E103124ED7E53330E003124DBC
:103A5000CBE53430E103123BDDE53530E1031236CE
:103A6000BDE53430E003123C85AF36124E66853238
:103A7000BFD007D006D005D004D003D002D001D0EB
:103A800000D0D0D082D083D0F0D0E0327538FF782B
:103A900069E6640218466003023B327865E6184620
:103AA0006003023B327862E6FF20E703023B327894
:103AB00060E6FEC39404407AE4F516F517EF541F50
:103AC00014601214601D240270597867E61846705D
:103AD00052F538804EC37867E6940118E69400509A
:103AE00042803D7866E6FC08E6FDAA04547F4A70F1
:103AF00006EEB4040280297860E6B40626ED247F41
:103B000060122480701D787EE6B406067516017575
:103B10001700800C7877E6B4060675160175170055
:103B2000E4F538E538700BFB7A0079167D02FC125B
:103B30004BDAAF38227538FF7869E6184660030221
:103B40003BDA7862E6541F24FE6003023BDA7865B4
:103B5000E618466003023BDA7866E6FE08E6547F24
:103B6000FF4E700D7860E6C394044005E4F538809C
:103B700069C3EF9403EE940050607860E6640670C9
:103B800059F5387867E6547FFF124E667867E6305D
:103B9000E70B759611759740E59620E7FB7867E689
:103BA00020E718759694E59620E7FB5397DFE59696
:103BB00020E7FB439780E59620E7FB7867E6247FC4
:103BC000600F24807014787EE66403600D760180B7
:103BD000097877E6640260027601AF38227F01122D
:103BE0004E66124E345010759611E4F597E5962006
:103BF000E703023C8480F67877E664026003023CC7
:103C0000847875E6FE08E6FFD39440EE9400400405
:103C10007F4080008F377E00C37876E69FF618E6F7
:103C20009EF618EF26F618EE36F67878E61392062A
:103C30007875E6FE08E6FFD39400EE94004024D3A6
:103C4000EF9440EE940040047D4080047876E6FDD9
:103C50007872860308E6FA08E6F9D2087F01124472
:103C6000A280097878E654FEF6187601300615E54C
:103C700037FB7A007875E6F53E08E6F53FE4FD7F10
:103C80000112207522E4FF124E66124E1A400512F0
:103C90004E0D501D759611E4F597E59620E7FB75DE
:103CA0009611759780E59620E7FB78707601E40819
:103CB000F6124E4E505F7871E6FF30E30280537883
:103CC00070E66401703E786AF61245DB7F62122F5F
:103CD00088BFFD147862E6FFC413540370051241D7
:103CE000318032124D19802D7862E620E7277870F6
:103CF000E6640360207869E6184660197871E64446
:103D000008F680117870E6B40305123EF08006785C
:103D100071E64402F67870E6B40208124E274003BA
:103D20001232C42275510175528D7553007554B30A
:103D300090018BE0F555A3E0F556E555607FD394EF
:103D40003F507AE5566076D394085071E4FFEFC394
:103D5000955650250552E552AC517002055114F5A7
:103D6000828C83E0FE0554E554AC53700205531475
:103D7000F5828C83EEF00F80D5E4FFEFC3955550AC
:103D8000140554E554AC537002055314F5828C832A
:103D9000E4F00F80E67E007FB37C007D27E55625AA
:103DA00055F55C7B031242403083FD900019E556C7
:103DB000F090000EE555F09000007401F0228B2E7B
:103DC0008A2F893053E6FD122065E4FF745E2FF8D8
:103DD000E4F60FBF2BF6AB2EAA2FA930122EE578F2
:103DE00080A60308A60208A601AB2EAA2FA9309030
:103DF0000003122F057883A60308A60208A601ABCC
:103E00002EAA2FA930900006122F057886A6030847
:103E1000A60208A601AB2EAA2FA930900009122EE7
:103E20005E785FF653A98F43D72075960175970882
:103E3000E59620E7FB75960B75970FE59620E7FB57
:103E4000124EA87860760343E602759601759701D5
:103E5000E59620E7FB7F0022C0E0C0F0C083C0826F
:103E6000C0D075D000C000C001C002C003C004C0F3
:103E700005C006C007E5F854F0FFF4440F52F8EF10
:103E800030E752E508602C300113850C82850B83E6
:103E9000E5A3F0050CE50C7007050B800385A33145
:103EA000D5080D300305300002D2FA12201A800323
:103EB00085080AE509601E30F91B300213850E8261
:103EC000850D83E0F5A3050EE50E7007050D800353
:103ED00075A3001509D007D006D005D004D003D0B3
:103EE00002D001D000D0D0D082D083D0F0D0E03248
:103EF0007871E6139206124E9D8F37C3786FE69F56
:103F000018E69400500E7870760108E64402F675C3
:103F100038F2805A786B860308E6FA08E6F9AD377E
:103F2000E4FF124804AF377E00786DEF26F618EEF6
:103F300036F6C3786FE69FFF18E69EFEF608EFF6AA
:103F4000E4F538EF4E701CE5376440601675961145
:103F5000759748E59620E7FB7870760108E654FEF1
:103F6000F6800B759611759740E59620E7FB3006B5
:103F700015E537FB7A00786EE6F53E08E6F53FADCD
:103F800038E4FF122075228F518B528A538954E5F1
:103F900051601624FE601280007BFF7A4A79737D9F
:103FA0001D7C011220187FFC22E551600A7860E632
:103FB000640660037FF722E55175F007A4246BF9CE
:103FC000AF01EF2405F8E6FE64016009EE7FFEB460
:103FD00005027FFB22E5E6A2E1920853E6FDAA5323
:103FE000A954A807A65208A60208A601EF2403F8C0
:103FF000A65508A656EF2405F87603A207E4335425
:1040000001FEEF2406F8E654FE4EF654F7F63008AB
:104010000343E6027F00227538FF7869E6184660A0
:10402000030240A47862E6541F24FE70777866E6A7
:10403000FE08E6547FFF4E700D7860E6C39404409E
:1040400005E4F538805EC3EF9403EE940050557894
:1040500065E61846704E7860E664067047F5387875
:1040600067E6547FFF124E667867E630E70B759679
:1040700011759710E59620E7FB7867E620E7107545
:104080009694E59620E7FB439720E59620E7FB789A
:1040900067E6247F600A2480700A787E76068004B2
:1040A00078777606AF382275510175528D755300B9
:1040B0007554B375558090018CE0F556E5566070E7
:1040C000D39408506BE4FFEFC3955650250552E595
:1040D00052AC517002055114F5828C83E0FE0554F8
:1040E000E554AC537002055314F5828C83EEF00F47
:1040F00080D5E4FFEFC3955550140554E554AC53F7
:104100007002055314F5828C83E4F00F80E67E0084
:104110007FB37C007D27E5562555F55C7B03124275
:10412000403083FD900019E556F090000EE555F003
:1041300022E4F5377863E6B40C00506A904143F806
:1041400028287302416702416E0241A602417502AE
:1041500041A602417C0241830241A602418A0241FA
:104160009102419802419F123A8C8F37803B123B5B
:10417000358F3780341240178F37802D1246A28F2B
:104180003780261231B48F37801F12201E8F378060
:104190001812378B8F37801112488F8F37800A1291
:1041A00049E28F3780037537FFE4FF124E66E5372B
:1041B000B4FF03124D19AF3722AE07E4FB124E666F
:1041C000300813A80674107E00088005C333CE3370
:1041D000CED8F9FF8013AF0674207E00A8070880B0
:1041E00005C333CE33CED8F9FFD3ED9FEC9E5003F9
:1041F000430380300903430340300720430320304A
:104200000803430304759611759740E59620E7FB74
:104210007596128B97E59630E72580F9759614759B
:104220009780E59620E7FB7596158B97E59620E736
:10423000FB20080B759612E4F597E59620E7FB2224
:104240008E578F58AF5CC207C2AEE5A120E7FB20B6
:104250000403124D7C85A35DC2FF300305300002CC
:10426000C2FAE55C605430F91EEF601BEB30E113DD
:10427000855783855882E0F5A30558E558700705F2
:10428000578003E4F5A31F30FF19C2FFEB30E00EA7
:104290008D828C83E5A3F00DBD00010C800385A306
:1042A0005D155C2003BC3000B9200709E5A130E3AF
:1042B000B1D20780ADE5A120E3A8300305300002AC
:1042C000D2FAAF5C2202490AE493A3F8E493A34034
:1042D00003F68001F208DFF48029E493A3F8540781
:1042E000240CC8C333C4540F4420C8834004F4567C
:1042F000800146F6DFE4800B0102040810204080B4
:104300009034CDE47E019360BCA3FF543F30E509B7
:10431000541FFEE493A360010ECF54C025E060A8B3
:1043200040B8E493A3FAE493A3F8E493A3C8C58246
:10433000C8CAC583CAF0A3C8C582C8CAC583CADFB4
:10434000E9DEE780BEC0E0C0F0C083C082C0D075A7
:10435000D000C000C001C002C003C004C005C00638
:10436000C00785BF2275BF0053887F758DF0758BA0
:1043700060900000E0B4030A7F0312450C90000037
:10438000E4F0900000E0B4110A7F1112450C900097
:1043900000E4F0900000E0B4120A7F1212450C9085
:1043A0000000E4F08522BFD007D006D005D004D0AD
:1043B00003D002D001D000D0D0D082D083D0F0D0B2
:1043C000E032124CAB90018CE054FE124C14124CB3
:1043D0007C90018C124C1CE4900019F0C207124C26
:1043E0003090018EEFF0124C21E06041E4FDFC9032
:1043F000018EE0FFC3ED9F7480F86C985034124C2E
:1044000021E024FFFFE434FFFEEFB50508EEB5041C
:1044100004D2078002C207124C30748F2DF58274CB
:10442000013CF583EFF00DBD00010C80C2D20712F4
:104430004C30124CC1024DAD8F3CE4F53EE53C6082
:1044400005C3940340127BFF7A4A79737D4D7C004B
:10445000122018753EFC8041E5E6A2E1920753E682
:10446000FDE53C75F007A4246BF9893DE53D240585
:10447000F8E664016023E53C24FE600A04700C7FCA
:104480000112497A80057F011249AEE53D2405F805
:104490007601E53D2406F8E4F630070343E602AF73
:1044A0003E228F3F8D408B418A428943E59620E72B
:1044B000FBE53F4420F596E5411460132403601AA0
:1044C000146020147026AD43AF40124D42801DACE5
:1044D00042AD43AF40124D038012AD43AF40124D89
:1044E000568009AC42AD43AF40124C9430081CE5F5
:1044F0003FD394004015AF3F124E66759691E596F6
:1045000020E7FB439701E59620E7FB22AD0753E642
:10451000FD75960E759701E59620E7FB759691E57A
:104520009620E7FBAF97EF30E50B75961175974036
:10453000E59620E7FBEF30E20B759611E4F597E581
:104540009620E7FBBD0303124760BD120312484BE0
:10455000BD11031230A27B017A017947E50FFD7C82
:10456000007F21123911759611759701E59620E7A4
:10457000FB43E602227551007552277553007554AE
:10458000B37D84E4FF748D2FF582E43401F583E07C
:10459000FE74272FF582E43400F583EEF00FBF049C
:1045A000E4E4FF0552E552AA517002055114F58268
:1045B0008A83E0FE0554E554AA537002055314F5AE
:1045C000828A83EEF00FBF85DA7E007FB38D5C7B3D
:1045D00002E4FDFC1242403083FD22753762A937A8
:1045E0007A007B007D08E4FF1248047596117597E8
:1045F00040E59620E7FBE5372402F8E6FC08E6FAFA
:10460000ECFFEAFEE5372402F8A60608A607E53720
:104610002404F8E6FC08E6FAECFFEAFEE537240499
:10462000F8A60608A607E5372406F8E6FC08E6FA29
:10463000ECFFEAFEE5372406F8A60608A60722A343
:10464000F0A3E544F0A3E545F0E4A3F0755101754E
:10465000528D7553007554B390018CE0FD6042D3C8
:10466000943E503DE4FFEFC39D50250552E552AA0C
:10467000517002055114F5828A83E0FE0554E55419
:10468000AA537002055314F5828A83EEF00F80D688
:104690007E007FB38D5C7B02E4FDFC1242403083E0
:1046A000FD227538FF7864E6FE08E6FFC39480EECD
:1046B0009400504D7869E6184670467862E6541FBB
:1046C000703F7867E6184670387860E6B4030BEF01
:1046D0004E60197F04124A4380127860E6B4040FDA
:1046E0007865E6184670057F03124A43E4F538E51D
:1046F00038700EF5967865E64480F597E59620E7E4
:10470000FBAF3822900019E02427F582E43400AF93
:1047100082F5398F3A753B01753C49900147740326
:10472000F090000EE0900148F0E4FF90000EE0FEF3
:10473000EFC39E5025053AE53AAC397002053914AD
:10474000F5828C83E0FD053CE53CAA3B7002053B0D
:1047500014F5828A83EDF00F80D1EE2402F50F224A
:10476000900019E02427F582E43400AF82F5238F0E
:10477000247525017526499001477403F090000EB9
:10478000E0900148F0E4FF90000EE0FEEFC39E5081
:10479000250524E524AC237002052314F5828C83BF
:1047A000E0FE0526E526AC257002052514F5828C71
:1047B00083EEF00F80D1750F4022124CAB90018C2C
:1047C000E0124C1490018BE06034E4FDFC90018B0E
:1047D000E024FEFFE434FFFEC3ED9FEE6480F8ECBE
:1047E0006480985019124C21748E2DF58274013C0E
:1047F000F583E0FF124B410DBD00010C80CF124C40
:10480000C1024DAD8F398D3A8B3B8A3C893DE53AEB
:10481000D394004035E59620E7FBE53944E0F59672
:10482000E53B1460112403601824FE701DAD3DAB00
:1048300039AF3A024BF7AC3CAD3DAB39AF3A024B26
:104840007BAD3DAB39AF3A124BBB227523017524CA
:1048500089752501752647E4FF0524E524AC2370FE
:1048600002052314F5828C83E0FE0526E526AC259F
:104870007002052514F5828C83EEF074892FF58281
:10488000E43401F583E4F00FBF40CE750F40227889
:1048900066E6FE08E67DFFC39401EE9400502B7897
:1048A00069E66401184670227865E61846701B7840
:1048B00062E6B481157860E6B4060F7BFF7A4F7923
:1048C000CC7D017C00124BDAE4FDAF0522787076D6
:1048D0000178777606787E760675960F75978FE560
:1048E0009620E7FB759601759701E59620E7FB7525
:1048F000960B75970FE59620E7FBE5C9A2E65004F5
:104900007F0380027F01124A4322752701E4F528C4
:10491000F529F52AF52BF52C1249461233CBE52C57
:1049200070FC124D6A052BE52B7002052AC3941EFC
:10493000E52A940040E8E4F52AF52B122CCC123538
:10494000CA752C0180D885BF2D122003124EE912A2
:104950004DD9124DF3124DE6124EB3124EED124EDA
:10496000F1124EBD124D8D124E00124D2E124D9D64
:10497000124ED0124EC7852DBF22124E667596116B
:10498000759708E59620E7FB759691E59620E7FB7D
:10499000E59720E3F3759611759708E59620E7FBF8
:1049A000759691E59620E7FBE59720E3F322124EFA
:1049B00066759614759710E59620E7FB759694E555
:1049C0009620E7FBE59720E4F3759614759710E5BC
:1049D0009620E7FB759694E59620E7FBE59720E4A3
:1049E000F3227FFF7867E6FE7865E6FDEEC394016B
:1049F00050207860E6B4061A7869E618467013ED20
:104A000070107862E6541FFEBE0107C206124AA269
:104A1000E4FF22FFE5F0341EFE0DA2AF9207C2AF05
:104A200075FFA075EF028F828E8375B7A575B7F1FC
:104A3000438F0175FFA075EF02EDF0538FFEA207C3
:104A400092AF228F397860E6F53AC394054009E5C4
:104A50003994055003124B5AE539B405047861A620
:104A60003A7860A639E53A65396007AD39AF3A1250
:104A70004C4B22443A5C776F726B5C4B4F414C411C
:104A80002D3030315C6C69625C65666D385F7573C2
:104A9000625C7372635C65666D385F757362642E09
:104AA000630030060878777601787E7601D207D2E7
:104AB00008C2097D407C007F011241B9C207D208BB
:104AC000C2097D407C007F010241B9AC0775BF0F70
:104AD000124CD7AF04124ADAAF058FC2C2C0E4FF4E
:104AE000FE20C00B0FBF00010EBE27F5BF10F2A2C3
:104AF000C1B3227F8E124B070D7F8E124B070D7FA5
:104B00008E124B070D7F8E124ACBAF03124ADA1278
:104B10004CEDE4F5BF22AD07ED4480F596E5962017
:104B2000E7FBAF97EF7F00FEED144480F596E59626
:104B300020E7FBAD97ED420722124B41124C21AF0B
:104B4000058FC2C2C0E4FFFE20C00B0FBF00010EE4
:104B5000BE27F5BF10F2A2C1B322E5E6A2E192069C
:104B600053E6FD753B01AF3B124438053BE53BC3C3
:104B7000940340F230060343E602228D828C831FA9
:104B8000EF600BE59620E7FBE597F0A380F1E59653
:104B900020E7FBEB4420F596E597F02290018B741B
:104BA00001F0A3F0A37405F0123D24900019E02455
:104BB00027F582E43400F583E0FF22A8051FEF60AB
:104BC0000BE59620E7FBE597F20880F1E59620E7F4
:104BD000FBEB4420F596E597F2227870E6B40116D7
:104BE000786BA60308A60208A60108A60408A60575
:104BF000087602E408F622A8051FEF600AE5962071
:104C0000E7FBA6970880F2E59620E7FBEB4420F54A
:104C100096A69722FF124B41124C21A3E0FF124BA4
:104C200041E4FFFE0FBF00010EEF64194E70F52244
:104C3000C2C0E4FFFE20C00B0FBF00010EBE27F56F
:104C4000BF10F2A207B392C1AFC2228F3BBD0613C1
:104C50007B017A017989755500755640D2077F022C
:104C6000123F8722FFE5F0341EFEA2AF9207C2AFCB
:104C70008F828E83E493FFA20792AF22D2C5C2C077
:104C8000E4FFFE20C00B0FBF00010EBE27F5BF10D2
:104C9000F2C2C5228D828C83AE071FEE600CE596B2
:104CA00020E7FBE493F597A380EE22D2C5E4FFFE54
:104CB00020C00B0FBF00010EBE27F5BF10F2C2C50A
:104CC00022D2C4C2C0E4FFFE30C40B0FBF00010EED
:104CD000BE27F5BF10F222D2C5E4FFFE20C00B0FA5
:104CE000BF00010EBE27F5BF10F2C2C522D2C4C25A
:104CF000C0E4FFFE30C40B0FBF00010EBE27F5BF9E
:104D000010F2228D828C83AE071FEE600BE5962099
:104D1000E7FBE0F597A380EF22E4FF124E66787080
:104D20007605759611759760E59620E7FB22E4906D
:104D30000025F0900024F0F5C175BF0F75C1D0F5C6
:104D4000BF22A805AE071FEE600BE59620E7FBE645
:104D5000F5970880EF22A805AE071FEE600BE596D9
:104D600020E7FBE2F5970880EF22E4FDFC124DAD51
:104D70000DBD00010CED64C84C70F222E5A1A2E665
:104D80009203E5F8540C24FF9200D2042275B90373
:104D9000758902758CE3E4F58A4388102275BC0896
:104DA00075BA1F75BB0B43E88075D10822E4FFFE7E
:104DB0000FBF00010EEF64FA4E70F522E490018BF4
:104DC000F0A304F0A37406F002464C7860E6C394A6
:104DD0000240057F05124A43227580FFE4F5A47561
:104DE000F1FF75D4F0227590FF75A50875F2FF7577
:104DF000D59C2275A0FF75A60375F3F775D6FF2223
:104E0000758DF0758B6043891043884022759691AB
:104E1000E59620E7FBE597A2E422759691E59620BA
:104E2000E7FBE597A2E222759691E59620E7FBE580
:104E300097A2E122759691E59620E7FBE597A2E51A
:104E400022759694E59620E7FBE597A2E6227596F3
:104E500091E59620E7FBE5971322759694E5962059
:104E6000E7FBE597132275960E8F97E59620E7FBF3
:104E700022759686E59620E7FBAF9722759682E528
:104E80009620E7FBAF9722759684E59620E7FBAF67
:104E9000972275968EE59620E7FBAF97227596963A
:104EA000E59620E7FBAF97227870760143D78043E1
:104EB000D7402275E24075E10675E3022275A2072C
:104EC00043A14043F80C227BFF7A4F79C2023DBEDA
:104ED00075E60275A8C8227861E6FF024A437F0D95
:104EE000124B16228E378F382275DE082275B2C318
:104EF0002275A902220600FF0901A1018503953F41
:104F0000750826FF00150009019102953F26FF0054
:104F1000150009018102C0120100020000004035A5
:104F20000800FE0102010203010902290001010437
:104F3000803209040000020300000509211101006C
:104F400001222200070581034000020705010340FA
:104F5000000204030904011A0353696C69636F6E4C
:104F6000204C6162730001240348494420746F207F
:104F7000535049204465766963650001220330314E
:104F800032333435363738394142434445460001DF
:104F90001403436F6E6669672023310001220343C7
:104FA0007573746F6D20496E746572666163650018
:104FB000FF4F52FF4F56FF4F66FF4F7BFF4F8FFF54
:0E4FC0004F9CFF4F17FF4F29FF4FB006000018
:017DF0000092
:027DF20000008F
:087DF800012000F1010255AA6F
:00000001FF
